:020000040800F2
:100000000004002031020008010400080104000877
:1000100001040008010400080104000801040008AC
:10002000010400080104000801040008310400086C
:10003000010400080104000801040008110500087B
:10004000010400080104000801040008010400087C
:10005000010400080104000801040008010400086C
:1000600001040008010400080104000861120008EE
:1000700091120008C1120008F112000821130008B3
:100080005113000881130008811D000801040008B5
:10009000010400080104000801040008010400082C
:1000A000010400080104000801040008010400081C
:1000B000010400080104000801040008010400080C
:1000C00001040008010400080104000801040008FC
:1000D00001040008010400080104000801040008EC
:1000E00001040008010400080104000801040008DC
:1000F000010400080104000801040008511D000863
:1001000001040008010400080104000801040008BB
:1001100001040008010400080104000801040008AB
:10012000B1130008E113000821140008611400084D
:10013000A1140008211D00080104000801040008A2
:10014000010400080104000801040008010400087B
:10015000010400080104000801040008010400086B
:10016000010400080104000801040008010400085B
:10017000010400080104000801040008010400084B
:0801800001040008010400085D
:1001900000B583B000F02CFF00F03AFA4FF4006095
:1001A000C4F6000006210322002401F089FE40224B
:1001B0000F4B00944FF4A8710E4800F011FE0E484A
:1001C000214600F05DFF0D490D4A0B48082300F061
:1001D000C7FF4FF47A7000F053FE074809490A4AF6
:1001E000102300F0A5FF4FF4FA7000F049FEFAE783
:1001F000E11F0008780E0020000E00209025000866
:10020000D00F0020E025000810100020AFF3008080
:10021000704700BFAFF30080AFF30080AFF3008002
:10022000FEE700BFAFF30080AFF30080AFF30080C4
:1002300072B6644C84F30988022383F31488BFF3F5
:100240006F8F61486149884218D2CA1C051D531B33
:1002500023F00302034610184FF055318342196012
:10026000C2F380020AD01AB185422B46296005D01C
:100270001D1D5960083383426960F9D15448A0427A
:1002800018D25449041D0A1B22F0030503462818FE
:100290004FF0553183421960C5F380020AD01AB17C
:1002A00084422346216005D01D1D596008338342D6
:1002B0006960F9D101F06CFE4749484881421BD280
:1002C000C61C0C1D321B464822F00302161D056891
:1002D0000423B3420D60C2F380020DD022B1456801
:1002E0000823B342256007D01A1D1D5884585D505D
:1002F0000833B3428C50F7D13A483B49884217D271
:10030000CB1C041D1A1B22F00305034628180021EC
:1003100083421960C5F380020AD01AB18442234691
:10032000216005D01D1D5960083383426960F9D1F1
:10033000FFF76EFF2D4D2E498D421DD2CC1C2E1D78
:10034000A71BB808471C01242A6800EA0408904744
:10035000BC4211D0B8F1000F05D002243368984791
:10036000BC42354608D0696888470234A8682E1D0B
:1003700080470835BC42F6D1FFF70AFF1D4D1E4AE3
:1003800095421DD2D41C2E1DA71BBB085F1C012447
:10039000296803EA04088847BC4211D0B8F1000F6D
:1003A00005D0022430688047BC42354608D06A68D0
:1003B00090470234AB682E1D98470835BC42F6D1F1
:1003C000FFF72EFF0008002000000020000400209E
:1003D000000400200308002000080020000800207E
:1003E00038260008000800201012002088010008AC
:1003F000880100088801000888010008AFF3008028
:10040000FEE700BFAFF30080AFF30080AFF30080E2
:1004100072B6FEE7AFF30080AFF30080AFF3008069
:1004200000F086F900F044FC00F09AF900DF00BF0C
:10043000EFF30983203383F30988002383F31188C2
:10044000704700BFAFF30080AFF30080AFF30080D0
:1004500008B54FF46D43CEF200034FF44072C0F282
:10046000FA520021996007201021DA6000F0A8F804
:100470000A20202100F0A4F80B208021BDE80840CC
:1004800000F09EB8AFF30080AFF30080AFF30080C0
:10049000202383F311884FF46D43CEF20003586894
:1004A00010F400631AD0EFF309834FF0807243F821
:1004B000042CA3F1200181F309880F498A69096896
:1004C00092F823008968926858B1914294BF002243
:1004D000012262B1094A43F8082C704783F311885E
:1004E0007047914234BF00220122002AF2D1044811
:1004F00043F8080C704700BF540D00202104000889
:100500002C040008AFF30080AFF30080AFF300804D
:1005100008B500F07DF9202383F3118800F040F93D
:1005200000F0B6F800F054F9002383F3118800F0CE
:100530008FF9BDE80840FFF7ABBF00BFAFF3008005
:100540002DE9F04FC1F80CD0D0F80CD0BDE8F08FF9
:1005500008B500F005F9002383F311882846A04769
:1005600000F0CEFC08BD00BFAFF30080AFF3008009
:10057000F0B44FF461438408CEF20003C03400F0BD
:10058000030553F82470ED00FF26420906FA05F62C
:1005900027EA060601FA05F500F01F0002F16007E0
:1005A000012101FA00F02E4343F8246043F82700AC
:1005B00043F82200F0BC7047AFF30080AFF3008037
:1005C00082084FF46D43CEF20003063200F00300C0
:1005D00030B4C00053F82250FF2404FA00F425EA96
:1005E000040401FA00F10C4343F8224030BC704788
:1005F000024B034A98698261FEE700BF540D002058
:1006000020200008AFF30080AFF30080AFF300803C
:1006100030B583B0FFF71CFF00F00AFA00F0A0F934
:1006200000F08EFC00F0D4FC00F062F940F600000F
:100630004021C2F2000000F04BFB40F6545440F25F
:100640000043C2F20003C2F200040125C36180F836
:100650002050A06100F054F8002383F3118862B6A3
:1006600042F2A011A269C0F60001916140F650006B
:10067000009340F2F153E0212A46C0F60003C2F293
:10068000000000F0ADFB03B030BD00BFAFF3008051
:10069000F8B500F0FDF8164B986990F8232012B1D8
:1006A000511E80F82310446A124D631C4362E868AF
:1006B0002C68421CAC42EA6018D0A768013FA760D2
:1006C000A7B92168E6684D60E760296000F080F80E
:1006D000002383F311882069B047202383F3118816
:1006E00000F05EF82C68A368002BEAD0F8BD00BFCC
:1006F000540D0020440D0020AFF30080AFF30080C4
:10070000054B186810B905490A6822B10448054B21
:100710001860FFF77DBE7047300900203C0D0020B7
:1007200040200008400D0020AFF30080AFF30080B0
:10073000074B186810B5074C08B9216821B1064A63
:10074000064B1A60FFF764FE0120206010BD00BF59
:10075000300900203C0D002048200008400D0020FA
:10076000084B186810B5084C28B92168002902DD2B
:100770000020206010BD054A054B1A60FFF748FEB7
:10078000F6E700BF300900203C0D00205020000893
:10079000400D0020AFF30080AFF30080AFF3008086
:1007A000074B1868002810B5064C01DD216821B1FF
:1007B000054A064B1A60FFF72BFE0120206010BD92
:1007C000300900203C0D002058200008400D00207A
:1007D000084B1868002810B5074C05DD2168002972
:1007E00002DD0020206010BD044A054B1A60FFF7AF
:1007F0000FFEF6E7300900203C0D002060200008C5
:10080000400D0020AFF30080AFF30080AFF3008015
:1008100010B5202383F31188094C2168002902DBDD
:10082000084A106828B10849084B1960FFF7F0FD25
:1008300021684A1C2260002383F3118810BD00BF89
:10084000300900203C0D002068200008400D0020E9
:1008500010B5202383F31188094C2168002902DD9B
:10086000084A106828B10849084B1960FFF7D0FD05
:1008700021684A1E2260002383F3118810BD00BF47
:10088000300900203C0D002070200008400D0020A1
:10089000064B1868002804DB05490A68002A00DDB9
:1008A00070470448044B1860FFF7B2BD30090020C0
:1008B0003C0D002078200008400D0020AFF30080A0
:1008C000064B186820B906490A68002A00DD7047FF
:1008D0000448054B1860FFF79BBD00BF300900209E
:1008E0003C0D002080200008400D0020AFF3008068
:1008F00040F63413C2F200031A46402142F8081BA6
:100900005A607047AFF30080AFF30080AFF3008010
:100910000C490D4A10B4CC680C49536889691C60B5
:100920005960846A9C6003F1100190F8204002F540
:10093000816081421C732ABF02F108035160536039
:1009400010BC7047440D002034090020540D0020D5
:1009500040F64053C2F200031860FFF759BD00BFD4
:1009600040F64453C2F200034FF0FF3200205B60B8
:100970001B609A60D8607047AFF30080AFF30080CF
:10098000F8B505460C4616461F46FFF781FFCDB168
:10099000C6B1BCB10D492F610B68EE609A689442F4
:1009A00004D91B68A41A9A68A242FAD358682B602B
:1009B0008B42686005605D60AC6002D099680C1B7A
:1009C0009C60F8BD0248FFF7C3FFE3E7440D002039
:1009D00090200008AFF30080AFF30080AFF30080F9
:1009E00010B50446FFF754FF84B1E36893B1206863
:1009F0000A4A904203D08168A368CA18826061687D
:100A00000860206800234160E36010BD0448FFF7E0
:100A10009FFFEAE70348FFF79BFFE8E7440D00204C
:100A2000A0200008B0200008AFF30080AFF30080E2
:100A300040F65453C2F2000300225B601B609A60D0
:100A40005B611B61704700BFAFF30080AFF30080B4
:100A500010B50446FFF71CFF94F820308BB10E2B25
:100A60000FD00022A168094884F82020006883681C
:100A70008B42FBD24168206061600C60446020467C
:100A800010BD0348FFF764FFEBE700BF540D0020E3
:100A9000D0200008AFF30080AFF30080AFF30080F8
:100AA00010B52023044683F31188FFF779FE94F8EC
:100AB00020300D2B11D8DFE803F016101007100BB3
:100AC000101010101010100BA06A8268511C816069
:100AD00094E80C001A60206843604FF0FF33A36273
:100AE0002046FFF7B5FFFFF773FE002383F311885D
:100AF00010BD00BFAFF30080AFF30080AFF3008004
:100B000070B5114C0646FFF7DBFE2368A5691A682D
:100B100085F8206014210120546083F8200085F8B6
:100B2000231028462260A361FFF7F2FEEB69ADF1C6
:100B30002402934202D90548FFF70AFFA06929461B
:100B4000BDE87040FFF7FCBC540D0020E420000815
:100B500070B50C4686B00646FFF7B2FE631C12D095
:100B60000B4D0C4AAB69214601A8FFF709FF30463F
:100B7000FFF7C6FF049B13B101A8FFF731FFA86977
:100B8000806A06B070BD3046FFF7BAFF004DF6E749
:100B9000540D0020A10A0008AFF30080AFF30080DD
:100BA00070B5144D04460E46FFF78AFEA869A26888
:100BB0008368A6629A4213D9FFF74AFF01210646CD
:100BC00084F82010AC61FFF7A3FEF069ADF12402B8
:100BD00090420AD820463146BDE87040FFF7B0BCCD
:100BE0002046BDE87040FFF733BF0348FFF7B0FE73
:100BF000F0E700BF540D0020E4200008AFF30080B0
:100C000038B5104C2368A5691A6801211420546076
:100C100083F8201085F8230028462260A361FFF79F
:100C200017FF2846FFF774FEEB69ADF124029342EB
:100C300002D90548FFF78CFEA0692946BDE8384077
:100C4000FFF77EBC540D0020E4200008AFF30080C5
:100C500070B5144E3368B5691A68AC6856600121E6
:100C6000002083F820103260B36185F8200000E096
:100C70001B689A68A242FBD859682B6069602846B5
:100C80005D600D60FFF744FEEB69ADF12400834227
:100C900002D90548FFF75CFEB0692946BDE87040FF
:100CA000FFF74EBC540D0020E4200008AFF3008095
:100CB000044B986990F8231009B1FFF7C9BFFFF7FB
:100CC0009FBF00BF540D0020AFF30080AFF3008042
:100CD0002DE9F00140F65454C2F200040022656987
:100CE0004164046100F13006816000F12C0C00F1D8
:100CF0004C0745614FF0020860610121142480F81F
:100D0000208080F8212080F823400264C263426280
:100D100080F8221082612861C0F82CC04663066307
:100D2000C761BDE8F0017047AFF30080AFF300800A
:100D30002DE9F84F04460D4690469946FFF7A8FD69
:100D40000CB1CF2D38D82048FFF702FE1F4E0A9B6A
:100D5000D6F814C0A5F124016718E76044F80190A3
:100D60001B497B6002233962002504F1300204F143
:100D70002C0B04F14C0A84F8203014210123266145
:100D8000C4F80880C4F814C02046746184F8215067
:100D900084F82310C4F844802564E563656284F810
:100DA0002230A561CCF81040C4F82CB062632263F5
:100DB000C4F81CA0BDE8F88FB8F17F0FC3D8B9F113
:100DC000000FC3D1BFE700BF00210008540D002071
:100DD00051050008AFF30080AFF30080AFF300804F
:100DE0002DE9F04F9B4683B080468946924600F13C
:100DF0004C0300F1010400F14D07FF26254604F8DD
:100E0000016C05F8016B6C1CBC42F7D108EB0907BB
:100E1000BB4215D21846552600F8016BD9437A1803
:100E2000B84202F001030BD01BB100F8016BB842CD
:100E300006D0054605F8016B4670681CB842F8D12B
:100E4000202383F31188FFF773FC0C9C5B4652460A
:100E5000494600944046FFF76BFF00210446FFF728
:100E60009FFEFFF77DFC002383F31188204603B02B
:100E7000BDE8F08FAFF30080AFF30080AFF30080E8
:100E800010B5044610B90948FFF762FD202383F32B
:100E90001188FFF74DFC21460620FFF759FEFFF7AA
:100EA0005FFC002383F3118810BD00BF40210008C0
:100EB00038B5104B9C692546A06255F82C0FA84206
:100EC00006D00168E162FFF7C3FDE06AA842F8D1ED
:100ED00094F82100830704D1636922691A612169AA
:100EE0004B610E20FFF70CFE0348BDE83840FFF7CA
:100EF0002FBD00BF540D002050210008AFF300802B
:100F000010B52023044683F31188FFF711FC204617
:100F1000BDE81040FFF7CCBFAFF30080AFF3008017
:100F200010B5044620B1002364602460A36010BDA6
:100F30000148FFF70DFDF6E7C0210008AFF3008080
:100F400040F6745240F670534AF200010648C2F26D
:100F50000002C2F20003C2F2000120F0070021F0FB
:100F6000070110601960704717120020AFF300806E
:100F700010B50446FFF78CFC074A08491368096856
:100F8000E01D20F00700C91A88429ABF18181060A7
:100F90000023184610BD00BF740D0020700D002006
:100FA00010B52023044683F31188FFF7C1FB2046C8
:100FB000FFF7DEFF0446FFF7D3FB002383F311881E
:100FC000204610BDAFF30080AFF30080AFF3008088
:100FD00040F67853C2F2000340F6A1710022C0F639
:100FE000000103F1100019609A60DA60FFF798BF02
:100FF00008B500F045FB00F00BF942F2E040C0F606
:10100000000000F0DDFE00F023F8BDE8084000F02D
:10101000C7BF00BFAFF30080AFF30080AFF3008025
:101020004FF48053CEF2000319465A68801882426A
:101030004B6802D29A4202D970479A42F7D9984235
:1010400094BF00230123002BF1D17047AFF3008040
:1010500000F0DEBBAFF30080AFF30080AFF30080A1
:1010600000230122027043608360C3600361436117
:101070001830FFF755BF00BFAFF30080AFF300801B
:1010800038B504460D46B8B1202383F31188FFF725
:101090004FFB2378581E012802D90948FFF758FC56
:1010A0002046656000F0FCFB02212170FFF758FB31
:1010B000002383F3118838BD0248FFF749FCE3E7BA
:1010C0008022000870220008AFF30080AFF3008098
:1010D000F8B504460E4617461D46FFF7D9FBCCB1BE
:1010E000C6B1BFB1012D01D0EB0713D4207802287F
:1010F00006D0042804D0052802D00848FFF728FCB1
:1011000003232046A760E56026612370BDE8F84010
:1011100000F05EBC0248FFF71BFCE7E7C4220008B2
:10112000AC220008AFF30080AFF30080AFF3008083
:10113000F8B51C4607460E461546202383F3118852
:10114000FFF7F6FA2346384631462A46FFF7C0FF36
:10115000FFF706FB002383F31188F8BDAFF300808F
:101160002DE9F041984604460F461646202383F3A6
:101170001188FFF7DDFA636913B10C48FFF7E8FB4C
:101180000B4D4346324639462046FFF7A1FFA96979
:1011900002206161FFF7B4FCA869846AFFF7E0FAF6
:1011A000002383F311882046BDE8F0814423000822
:1011B000540D0020AFF30080AFF30080AFF3008048
:1011C0004FF48053CEF2000359688160704700BF2E
:1011D0004FF48053CEF20003094A81685B6810B473
:1011E0001468C2685B1A191B9142816005D80269B4
:1011F000914238BF016110BC7047C160FBE700BF7E
:10120000980D0020AFF30080AFF30080AFF30080B3
:1012100010B540F6985486B0C2F200044FF48053E3
:101220000022CEF200034FF0FF30226004920590BE
:10123000596841F2D11241F2C11301A8C0F600036E
:10124000C0F60002019302920391FFF7C1FF0398D9
:10125000206006B010BD00BFAFF30080AFF3008088
:1012600008B5FFF7D5FA0023C4F20203074819684E
:10127000026801F00F0159600AB140689047FFF71A
:10128000E7FABDE80840FFF703B900BF9C0D002056
:1012900010B5FFF7BDFA0023C4F20203074819682E
:1012A0008268C1F303110C015C600AB1C068904709
:1012B000FFF7CEFABDE81040FFF7EAB89C0D00201A
:1012C00010B5FFF7A5FA0023C4F202030748196816
:1012D0000269C1F303210C025C600AB140699047C6
:1012E000FFF7B6FABDE81040FFF7D2B89C0D00201A
:1012F00010B5FFF78DFA0023C4F2020307481968FE
:101300008269C1F303310C035C600AB1C069904784
:10131000FFF79EFABDE81040FFF7BAB89C0D002019
:1013200010B5FFF775FA0023C4F2020307481968E5
:10133000026AC1F303410C045C600AB1406A904741
:10134000FFF786FABDE81040FFF7A2B89C0D002019
:1013500010B5FFF75DFA0023C4F2020307481968CD
:10136000826AC1F303510C055C600AB1C06A904700
:10137000FFF76EFABDE81040FFF78AB89C0D002019
:1013800010B5FFF745FA0023C4F2020307481968B5
:10139000026BC1F303610C065C600AB1406B9047BD
:1013A000FFF756FABDE81040FFF772B89C0D002019
:1013B00008B5FFF72DFA4FF48063C4F20203074823
:1013C0001968826B01F00F0159600AB1C06B904738
:1013D000FFF73EFABDE80840FFF75AB89C0D002021
:1013E00010B5FFF715FA4FF48063C4F20203084802
:1013F0001968026CC1F303110C015C600AB1406C06
:101400009047FFF725FABDE81040FFF741B800BF4D
:101410009C0D0020AFF30080AFF30080AFF300809D
:1014200010B5FFF7F5F94FF48063C4F202030848E2
:101430001968826CC1F303210C025C600AB1C06CB4
:101440009047FFF705FABDE81040FFF721B800BF4D
:101450009C0D0020AFF30080AFF30080AFF300805D
:1014600010B5FFF7D5F94FF48063C4F202030848C2
:101470001968026DC1F303310C035C600AB1406D61
:101480009047FFF7E5F9BDE81040FFF701B800BF4E
:101490009C0D0020AFF30080AFF30080AFF300801D
:1014A00010B5FFF7B5F94FF48063C4F202030848A2
:1014B0001968826DC1F303410C045C600AB1C06D10
:1014C0009047FFF7C5F9BDE81040FEF7E1BF00BF48
:1014D0009C0D0020AFF30080AFF30080AFF30080DD
:1014E0002DE9F00F40F6FC5286B0C2F200024FF434
:1014F00086600292C4F2020040F244420190C4F2BB
:1015000002024FF48B600392C4F202004FF4806237
:101510000490C4F20202029805924FF0080B0022D8
:1015200040F69C534FF01C0A4FF030094FF044082E
:101530004FF0580C6C2780264FF4816540F21C4414
:101540000260C2F200030198C4F2020BC4F2020A64
:10155000C4F20209C4F20208C4F2020CC4F2020787
:10156000C4F20206C4F20205C4F20204CBF8002061
:101570001A60CAF800209A60C9F800201A61C8F8F9
:1015800000209A61CCF800201A623A609A623260B8
:101590001A632A609A6322601A64026003989A644C
:1015A000026004981A6500210260C4F202019A6583
:1015B000059B4FF0FF324A605A6006B0BDE8F00F5D
:1015C000704700BFAFF30080AFF30080AFF300803F
:1015D0002DE9F041044684B000283FD0244E657ABE
:1015E0003768012000FA05FC1CEA070F31D12148B9
:1015F00000EBC5084CEA0707C8F804307B0640F842
:101600003520376007D04FF48053C4F202035D6980
:1016100045F001065E6117F4786F07D04FF48053F0
:10162000C4F20203586940F002055D6123686068F6
:101630001E6826F00F051D60257A0F2606FA05F6AE
:10164000002506601D603AB1A07A0901FEF790FFFF
:10165000284604B0BDE8F0811046FAE70648039139
:1016600002920193FFF774F9019B029A0399B5E77F
:10167000FC0D00209C0D002080230008AFF30080AB
:101680004FF48053C4F202034EF2100270B50021F1
:10169000CEF200024FF0FF3541F63F141E691D6186
:1016A000C0F2010419614EF6F050DE68DD60CEF242
:1016B0000000D9605460072491601460C4684FF43E
:1016C0008052CEF2000244F08074C460106840F092
:1016D00001001060D8694FF4E042C4F2000240F00B
:1016E0008050D861106840F4807010601A6A02F46B
:1016F0004070B0F5007F03D04FF480321A62196257
:101700004FF48053C4F20203196A0A0407D4186A1A
:1017100040F400721A62196A41F400401862FFF73F
:10172000DFFE4FF48052C4F2020200239169C4F23A
:10173000010341F0010090611A6842F02001196034
:1017400070BD00BFAFF30080AFF30080AFF3008047
:101750004FF48053C4F2020319461A6842F00100A4
:1017600018600A684FF480539007C4F20203F8D55A
:101770001968002201F0F900186019465A6048689B
:101780004FF4805310F00C0FC4F20203F7D1196824
:1017900041F4A0221A60184601684FF480538A036E
:1017A000C4F20203F8D55A6A42F0010058621946A1
:1017B0004A6A4FF480539007C4F20203F8D54FF4FD
:1017C0001050C0F21D0042F2021130225860D9625E
:1017D0001A63186840F08071196018684FF48052DD
:1017E0008101C4F20202F8D54FF40053C4F202039F
:1017F00012211960506840F002035360516801F0F3
:101800000C000828FAD17047AFF30080AFF30080D6
:10181000F8B540F60065C2F200052846FFF720FC47
:101820004FF44072C5F2000242F2D0364FF480739A
:1018300040F63C64C2F200045021C5F2000342F6B7
:101840008A271220AA62C0F600064FF0A042EA6280
:101850002B636E63AF63FEF78BFE2046FFF700FC41
:101860004FF4E0654FF480624FF4A063C5F20002CC
:10187000C5F200032F205021C5F200058436A56271
:10188000E26223636663A763FEF772FE3D20502188
:10189000BDE8F840FEF76CBEAFF30080AFF3008008
:1018A00038B50378012B054600D038BD4048854245
:1018B00065D040498D4252D06A6BA86A1368E96AC4
:1018C00000F10C049C608A6842F002038B608C6813
:1018D000E207FCD52C6BA26842F00203A360A26869
:1018E000D307FCD54FF4C03282604FF08053002202
:1018F0008A604FF434708B60A360FFF791FBEA6A53
:101900009068B0F1805F03D02B48FFF721F8EA6AB6
:10191000916841F00043936090680028FCDB296BDC
:101920008B68B3F1805F04D02448FFF711F8296B6E
:10193000EA6A886840F000438B6088680028FCDB16
:10194000936843F0010090601368D807FCD58A685B
:1019500042F0010088600B68DB07FCD538BD686B7E
:10196000174A05212B46FFF733FEC0B94FF48054C8
:10197000C4F20204626942F0005363619CE7686B41
:101980000F4A05212B46FFF723FE60B94FF4805024
:10199000C4F20200416941F0805444618CE7094877
:1019A000FEF7D6FFE2E70848FEF7D2FFEEE700BFFA
:1019B000000E00203C0E002088240008A02400080F
:1019C000E11A00087424000860240008AFF30080C6
:1019D0002DE9F8430469B4F8029019F0010F0546A7
:1019E00055D1AF6AE268BE6863692178A86B06F4D6
:1019F000703842F4005C48EA03084CF0010CEE68D1
:101A000039B1012E48F4005894BF40F0200040F056
:101A100024006A6BA9681268EB6AD1604FEA590921
:101A200009FB06F65660106010682D6BA66B40F03F
:101A300001011160C7F808801A68276A21691A60D5
:101A40009020A2695860E069196209F1FF395A6172
:101A5000616AA26A986149EA0707E06A1F635963ED
:101A60009A63216B626BD86349EA060604F13C0075
:101A70006961AA612E6307C86863A963EA63C3F852
:101A80000CC0996841F004029A60BDE8F8830348ED
:101A9000FEF75EFFB4F80290A3E700BFB824000889
:101AA000436BC26A1968586810B40C6824F00F04BC
:101AB0000C601B7A0F2101FA03F303609068400762
:101AC00006D5916841F0100393609068C106FCD47C
:101AD00010BC7047AFF30080AFF30080AFF300801D
:101AE00038B50B0704461DD40369D3B18A0710D556
:101AF0001D78002D3FD05D689DB1C268012A37D99D
:101B000059888368520801FB02F103EB4101A847A1
:101B100038BD4A0705D55B681BB1C26881685208A9
:101B2000984738BDFFF7BCFF2569AB683BB105207E
:101B300020700021204698472278052A15D00025DC
:101B40002561202383F31188FEF72AFE636933B1F0
:101B50004FF0FF32656118469A62FEF779FFFEF793
:101B600037FE002383F3118838BD02212170E6E798
:101B70008168A84738BDFFF793FF20694368DBB150
:101B8000042222702046A168E26898472078042841
:101B90000ED0202383F31188FEF702FE616900292D
:101BA000DDD00022626108468A62FEF751FFD6E767
:101BB000022323702561ECE7022121702361E8E70D
:101BC000036970B504460D463BB1CB0606D4280622
:101BD0002ED4E90553D4AA0578D470BD416B0A68A8
:101BE0005368002BF3D0FFF75BFF2069866846B18E
:101BF0000521217020460121B0472278052A00F0F6
:101C00008C8000262661202383F31188FEF7C8FD0F
:101C1000616931B14FF0FF32666108468A62FEF7B2
:101C200017FFFEF7D5FD002383F311882806D0D5D2
:101C30002046FFF735FF206986684EB10523022153
:101C400023702046B0472178052901D10222227055
:101C500000262661202383F31188FEF7A1FD636926
:101C600033B14FF0FF31666118469962FEF7F0FE1E
:101C7000FEF7AEFD002383F31188E905ABD52046BE
:101C8000FFF70EFF206986684EB1052203212270FE
:101C90002046B0472378052B01D102212170002670
:101CA0002661202383F31188FEF77AFD636933B13F
:101CB0004FF0FF32666118469A62FEF7C9FEFEF7E2
:101CC00087FD002383F31188AA0586D52046FFF7F8
:101CD000E7FE2569AB683BB1052004212070204652
:101CE00098472178052915D000252561202383F305
:101CF0001188FEF755FD636933B14FF0FF3165611F
:101D000018469962FEF7A4FEFEF762FD002383F3F6
:101D1000118870BD02222270E6E70223237070E76B
:101D200008B5FEF775FD4FF4A063C5F2000340F659
:101D30003C601A68C2F2000011461A60FFF740FFCB
:101D4000FEF786FDBDE80840FEF7A2BBAFF30080BA
:101D500008B5FEF75DFD4FF48063C5F2000340F661
:101D60003C601A68C2F2000011461A60FFF728FFB3
:101D7000FEF76EFDBDE80840FEF78ABBAFF30080BA
:101D800008B5FEF745FD4FF48073C5F200034FF030
:101D9000A0410A681868024340F600600A60C2F277
:101DA000000011461A60FFF70BFFFEF751FDBDE87A
:101DB0000840FEF76DBB00BFAFF30080AFF30080BB
:101DC0004FF48053C4F202035A6942F4FC01596192
:101DD00041684FF090424FF4806351608168916098
:101DE000C168D160016951614169116281695162C3
:101DF00001681160016AC4F600034FF40062596083
:101E0000416A9960816AD960C16A5961016B19623E
:101E1000416B5962C1691960C4F60002C36B53601B
:101E2000016C9160436CD360816C5161C36C13622F
:101E3000016D5162816B4FF440631160816DC4F696
:101E400000034FF480525960C16D9960016ED960F2
:101E5000416E5961816E1962C16E5962416D19609E
:101E6000C4F60002436F5360816F9160C36FD3600B
:101E7000D0F880105161D0F884301362D0F8881007
:101E80005162016F4FF4A0531160D0F89020C4F656
:101E900000035A60D0F894109960D0F89820DA6066
:101EA000D0F89C105961D0F8A0201A62D0F8A41084
:101EB0005962D0F88C001860704700BFAFF3008003
:101EC0002DE9F00F002302F00307C2F38006C2F3EE
:101ED000C105C2F341144FF00F09C2F3C3124FF012
:101EE000010A38E0D0F820B02BEA0C0C4CEA0808C4
:101EF000C0F82080D0F804B00AFA03FC2BEA0C08E2
:101F000048EA060BC0F804B04FEA430C4FF0030B4D
:101F1000D0F808800BFA0CFC6FEA0C0C0CEA0808ED
:101F200048EA0508C0F80880D0F80C800CEA0808D8
:101F300048EA0408C0F80C80D0F800800CEA080CCD
:101F40004CEA070CC0F800C049081AD07600AD0072
:101F5000A400BF00013303F0070C4FEA8C0C11F012
:101F6000010F02FA0CF809FA0CFCEDD0072BB9D9D5
:101F7000D0F824B02BEA0C0C4CEA0808C0F82480F6
:101F8000B8E7BDE8F00F7047AFF30080AFF3008013
:101F9000FFF7DEBBAFF30080AFF30080AFF300804C
:101FA000704700BFAFF30080AFF30080AFF3008055
:101FB000044B8B420CBF044B044B196852181A6037
:101FC000704700BF10100020C80F0020CC0F002069
:101FD000704700BFAFF30080AFF30080AFF3008025
:101FE0000A4B0B4A986970B54FF4A05402258261E0
:101FF000C4F600042E4626834FF4FA70FEF740FF25
:1020000065834FF4FA70FEF73BFFF4E7540D0020B0
:1020100030260008AFF30080AFF30080AFF30080FC
:1020200069646C6500000000000000000000000012
:1020300053562331000000005356233200000000A5
:102040005356233300000000535623340000000091
:10205000535623350000000053562336000000007D
:102060005356233700000000535623380000000069
:10207000535623390000000053562331300000002E
:102080005356233131000000000000000000000022
:1020900022636856545365744922282900000000C1
:1020A00022636856545265736574492228290000DA
:1020B0006368565452657365744928292C2023316E
:1020C0000000000000000000000000000000000010
:1020D000636853636852656164794928292C202319
:1020E00031000000737461636B206F766572666CFB
:1020F0006F770000000000000000000000000000FA
:1021000022636854686443726561746549222829B2
:10211000000000002263685468645365745072695B
:102120006F7269747922282900000000636854687E
:1021300064526573756D6528292C202331000000D9
:10214000226368546864536C656570222829000016
:102150006368546864457869745328292C202331B6
:102160000000000022636854686457616974222883
:102170002900000063685468645761697428292C39
:102180002023310063685468645761697428292CDE
:1021900020233200000000000000000000000000CA
:1021A0006D61696E0016851104044C080C1014183A
:1021B0001C20212223240000000000000000000059
:1021C0002263684D7478496E6974222829000000E2
:1021D0002263684D74784C6F636B5322282900008A
:1021E00063684D74784C6F636B5328292C2023311E
:1021F0000000000063684D74784C6F636B532829AE
:102200002C202332000000002263684D7478547241
:10221000794C6F636B5322282900000063684D746A
:1022200078556E6C6F636B28292C202331000000D9
:1022300063684D7478556E6C6F636B28292C20236E
:102240003200000063684D7478556E6C6F636B5399
:1022500028292C202331000063684D7478556E6C5A
:102260006F636B5328292C202332000000000000EC
:102270002261646353746172742228290000000093
:10228000616463537461727428292C202331000027
:102290002261646353746F70222829006164635360
:1022A000746F7028292C20233100000022616463A0
:1022B0005374617274436F6E76657273696F6E49A1
:1022C000222829006164635374617274436F6E76CF
:1022D000657273696F6E4928292C20233100000034
:1022E0002261646353746F70436F6E7665727369B5
:1022F0006F6E22282900000061646353746F70437D
:102300006F6E76657273696F6E28292C20233100F9
:102310002261646353746F70436F6E766572736984
:102320006F6E49222829000061646353746F704303
:102330006F6E76657273696F6E4928292C20233180
:1023400000000000616463436F6E76657274282933
:102350002C20233100000000226164634163717509
:102360006972654275732228290000002261646346
:1023700052656C65617365427573222829000000FF
:1023800022646D6153747265616D416C6C6F636141
:10239000746522282900000022646D6153747265FF
:1023A000616D52656C65617365222829000000002B
:1023B000646D6153747265616D52656C65617365BE
:1023C00028292C202331000000000000000000001C
:1023D000080002400400024000000B001C00024004
:1023E0000400024004010C003000024004000240DE
:1023F00008020D0044000240040002400C030E00DD
:10240000580002400400024010040F006C0002401B
:102410000400024014051000800002400400024045
:1024200018061100080402400404024000073800A6
:102430001C04024004040240040839003004024035
:102440000404024008093A00440402400404024023
:102450000C0A3B005804024004040240100B3C00EC
:102460006164635F6C6C645F737461727428292C9F
:10247000202331006164635F6C6C645F737461720C
:102480007428292C202332006164635F6C6C645FC4
:1024900063616C69627261746528292C20233100A4
:1024A0006164635F6C6C645F63616C6962726174C8
:1024B0006528292C202332006164635F6C6C645FA3
:1024C00073746172745F636F6E76657273696F6E39
:1024D00028292C202331000000000000000000000B
:1024E000000000A800000000000000FC55555565E4
:1024F000FFFF0000000000000000000080020A0052
:1025000000000000C0030F0015555055FFFF0000EC
:102510000000000099000000000000000000000022
:102520000000003055555545FFFF00000000000039
:10253000000000000000000000000000000000009B
:1025400055555555FFFF0000000000000000000039
:102550000000000000000000000000005555555527
:10256000FFFF000000000000000000000400000069
:10257000000000000F00000054555555FDFF0000FD
:10258000000000000000000000000000000000004B
:102590000000040000000000D11F0008000000003F
:1025A0000000FF0F0100000000000000000000001C
:1025B000C0810000000000000000000000000000DA
:1025C0000000000000000000007200000000000099
:1025D00000000000000000000000000000000000FB
:1025E00001001000B11F0008D11F0008000000000A
:1025F0000000FF0F01008001000080040000B40013
:10260000C0811C0807024500000000000000000017
:10261000000080040000B40000722007C8114100CF
:1026200000000000000000000000000000000000AA
:08263000626C696E6B657200BB
:0400000508000231BC
:00000001FF
