:020000040800F2
:100000000004002021020008F1030008F1030008A9
:10001000F1030008F1030008F1030008F1030008F0
:10002000F1030008F1030008F103000811040008BF
:10003000F1030008F1030008F1030008E1040008DF
:10004000F1030008F1030008F1030008F1030008C0
:10005000F1030008F1030008F1030008F1030008B0
:10006000F1030008F1030008F1030008F1030008A0
:10007000F1030008F1030008F1030008F103000890
:10008000F1030008F1030008F1030008F103000880
:10009000F1030008F1030008F1030008F103000870
:1000A000F1030008F1030008F1030008F103000860
:1000B000F1030008F1030008F1030008F103000850
:1000C000F1030008F1030008F1030008F103000840
:1000D000F103000811650008F1030008F1030008AE
:1000E000F1030008F1030008F1030008F103000820
:1000F000F1030008F1030008F1030008F103000810
:10010000F1030008F1030008F1030008F1030008FF
:10011000F1030008F1030008F1030008F1030008EF
:10012000F1030008F1030008F1030008F1030008DF
:10013000F1030008F1030008F1030008F1030008CF
:10014000F1030008F1030008F1030008F1030008BF
:10015000F1030008F1030008F1030008F1030008AF
:10016000F1030008F1030008F1030008F10300089F
:10017000F1030008F1030008F1030008F10300088F
:08018000F1030008F10300087F
:1001900010B582B005F054FF00F012FA15480021A6
:1001A00005F0CEFF4FF090404FF4007140F28232E4
:1001B00006F036F94FF090404FF4806140F2823201
:1001C00006F02EF9002300930B480C4B4FF4A87156
:1001D000402200F01DFC4FF0904403E04FF4FA7011
:1001E00000F066FC2069C307F8D5024802F0A8F8C1
:1001F000F4E700BFE011002060120020D166000883
:10020000704700BFAFF30080AFF30080AFF3008012
:10021000FEE700BFAFF30080AFF30080AFF30080D4
:1002200072B6644C84F30988022383F31488BFF305
:100230006F8F61486149884218D2CA1C051D531B43
:1002400023F00302034610184FF055318342196022
:10025000C2F380020AD01AB185422B46296005D02C
:100260001D1D5960083383426960F9D15448A0428A
:1002700018D25449041D0A1B22F00305034628180E
:100280004FF0553183421960C5F380020AD01AB18C
:1002900084422346216005D01D1D596008338342E6
:1002A0006960F9D106F004FA4749484881421BD2F7
:1002B000C61C0C1D321B464822F00302161D0568A1
:1002C0000423B3420D60C2F380020DD022B1456811
:1002D0000823B342256007D01A1D1D5884585D506D
:1002E0000833B3428C50F7D13A483B49884217D281
:1002F000CB1C041D1A1B22F00305034628180021FD
:1003000083421960C5F380020AD01AB184422346A1
:10031000216005D01D1D5960083383426960F9D101
:10032000FFF76EFF2D4D2E498D421DD2CC1C2E1D88
:10033000A71BB808471C01242A6800EA0408904754
:10034000BC4211D0B8F1000F05D0022433689847A1
:10035000BC42354608D0696888470234A8682E1D1B
:1003600080470835BC42F6D1FFF712FF1D4D1E4AEB
:1003700095421DD2D41C2E1DA71BBB085F1C012457
:10038000296803EA04088847BC4211D0B8F1000F7D
:1003900005D0022430688047BC42354608D06A68E0
:1003A00090470234AB682E1D98470835BC42F6D101
:1003B000FFF72EFF000800200000002000040020AE
:1003C000000400200308002000080020B8080020D6
:1003D000E8740008B8080020B01300208801000865
:1003E000880100088801000888010008AFF3008038
:1003F000FEE700BFAFF30080AFF30080AFF30080F3
:1004000000F096FA00DF00BFAFF30080AFF300808A
:10041000EFF30983203383F30988002383F31188E2
:10042000704700BFAFF30080AFF30080AFF30080F0
:1004300008B54FF46D43CEF200034FF44072C0F2A2
:10044000FA520021996007201021DA6000F090F83C
:100450000A20202100F08CF80B208021BDE8084004
:1004600000F086B8AFF30080AFF30080AFF30080F8
:10047000202383F311884FF46D43CEF200035868B4
:1004800010F4006319D0EFF309834FF0807243F842
:10049000042CA3F1200181F309880E498A690968B7
:1004A000D07F8968926858B1914294BF002201229E
:1004B00062B1094A43F8082C704783F311887047EA
:1004C000914234BF00220122002AF2D1034843F8AE
:1004D000080C7047F009002001040008040400081B
:1004E00008B5202383F3118800F0A2F8002383F3DA
:1004F0001188BDE80840FFF7BBBF00BFAFF3008025
:100500002DE9F04FC1F80CD0D0F80CD0BDE8F08F39
:10051000002383F311882846A04700F029FB704789
:10052000F0B44FF461438408CEF20003C03400F00D
:10053000030553F82470ED00FF26420906FA05F67C
:1005400027EA060601FA05F500F01F0002F1600730
:10055000012101FA00F02E4343F8246043F82700FC
:1005600043F82200F0BC7047AFF30080AFF3008087
:1005700082084FF46D43CEF20003063200F0030010
:1005800030B4C00053F82250FF2404FA00F425EAE6
:10059000040401FA00F10C4343F8224030BC7047D8
:1005A000024B034A98698261FEE700BFF009002010
:1005B00070670008AFF30080AFF30080AFF30080F6
:1005C00000B583B0FFF734FF00F0DAF800F060F810
:1005D00001F066FB01F0ACFB40F6B8004021C2F22E
:1005E000000000F0B5F940F6F011C2F2000101225E
:1005F00088610277002383F3118862B646F2807027
:100600008969C0F600008861009340F6001040F24E
:10061000A153E021C0F60003C2F2000000F0F8F997
:1006200003B000BDAFF30080AFF30080AFF30080F4
:1006300038B5134B9869C27F0AB1511EC177036A5E
:10064000104C5A1C0262E0682268411CA242E16020
:1006500014D09568013D956085B91368D1685C60D8
:100660002360D560002383F3118810698847202315
:1006700083F31188226890680028EED038BD00BF4F
:10068000F0090020E0090020AFF30080AFF3008004
:1006900040F6E013C2F200034FF0FF3200205B602F
:1006A0001B609A60D8607047AFF30080AFF30080A2
:1006B00070B40C4E03613468C260A568A94204D9C5
:1006C0002468491BA5688D42FAD363680460B4426C
:1006D000436018606060816002D0A068411AA16028
:1006E00070BC7047E0090020AFF30080AFF30080DA
:1006F0000368074A934203D0996882688918996011
:1007000042681360036800215A60C160704700BFEF
:10071000E0090020AFF30080AFF30080AFF300806A
:10072000202383F31188037F0D2B11D8DFE803F01A
:1007300020101007100B101010101010100B416A31
:100740008A68531C8B6090E80C001A6001684B604B
:100750004FF0FF3242628168074B002202771B682C
:100760009A688A42FBD25968036041600860586009
:10077000002383F311887047F0090020AFF3008055
:1007800040F6F013C2F2000300225B601B609A6027
:100790005B611B61704700BFAFF30080AFF3008067
:1007A00000228168054B02771B689A688A42FBD257
:1007B000596803604160086058607047F009002084
:1007C00040F6F013C2F2000310B499691A68087772
:1007D00014201468C87701201077104663601C60ED
:1007E0009A6110BCFFF78CBEAFF30080AFF30080BE
:1007F00030B54B1C87B0054611D00B4C0B4AA36992
:1008000001A8FFF755FF2846FFF7DAFF049B13B155
:1008100001A8FFF76DFFA069406A07B030BDFFF780
:10082000CFFF014CF7E700BFF009002021070008C7
:10083000F0B4144F8568BE690446B0686162002355
:1008400085420CD82377394609688A689542FBD9D6
:1008500048682160606004604C60F0BC704733778A
:10086000394609688A689042FBD9486831607060EF
:1008700006604E600123204631462377BC61F0BC00
:10088000FFF73EBEF0090020AFF30080AFF3008019
:100890000E4B18689969026830B453601A608C680E
:1008A00098610125142300220577CB770A77034648
:1008B00000E01B689A68A242FBD25A680B604A604B
:1008C0001160596030BCFFF71BBE00BFF00900206B
:1008D0000D4B18689969026830B453608C681A60CF
:1008E00001259861002305770B77034600E01B681C
:1008F0009A68A242FBD85A680B604A60116059603E
:1009000030BCFFF7FDBD00BFF0090020AFF3008051
:10091000044B1A68986991688368994200D87047B7
:10092000FFF7D6BFF0090020AFF30080AFF30080DF
:10093000034B9869C17F09B1FFF7CABFFFF7A8BF92
:10094000F0090020AFF30080AFF30080AFF3008028
:10095000F0B440F6F014C2F20004002265690164AC
:10096000046100F12C06816000F1280745614FF019
:10097000020C60610121142480F81CC04277C47706
:10098000C263826302628177826128618762066343
:10099000C662F0BC704700BFAFF30080AFF30080C9
:1009A0002DE9F00340F6F015C2F20005A1F1240C88
:1009B00000EB0C076969C76040F80C30069B7B6050
:1009C00040F21153C0F600033B6202230377142365
:1009D0000026904600F1280900F12C02C37701237C
:1009E0000561C0F808804161044668614677C0F837
:1009F0004080C66386630662837786610861C0F8BB
:100A000028900263C262BDE8F0037047AFF3008034
:100A100010B51C4682B0202383F311882346049C22
:100A20000094FFF7BDFF00210446FFF701FF0023FC
:100A300083F31188204602B010BD00BFAFF30080E1
:100A400010B5202383F31188084B9A69146C9168C0
:100A50008C4201D0814200D290601064FFF758FFB1
:100A6000002383F31188204610BD00BFF009002049
:100A700010B52023044683F311880021FFF7D8FE28
:100A8000002383F31188204610BD00BFAFF3008020
:100A9000202383F31188437F43F00401417700232F
:100AA00083F31188704700BFAFF30080AFF300807D
:100AB00008B50146202383F311880620FFF798FE2E
:100AC000002383F3118808BDAFF30080AFF30080EB
:100AD00008B5202383F31188054BD968411A02D049
:100AE0000620FFF785FE002383F3118808BD00BFB1
:100AF000E0090020AFF30080AFF30080AFF3008087
:100B000008B5202383F31188064B1A689869916809
:100B10008368994201D3FFF7BBFE002383F311885A
:100B200008BD00BFF0090020AFF30080AFF30080E4
:100B300038B50E4B9C692546606255F8280FA842CF
:100B400006D00168A162FFF72BFEA06AA842F8D187
:100B5000607F830704D1636922691A6121694B614F
:100B60000E20BDE83840FFF72BBE00BFF009002083
:100B7000202383F31188FFF7DBBF00BFAFF30080B2
:100B800038B50446202383F31188037F0E2B07D04A
:100B9000826A0848816907200A60A162FFF710FE97
:100BA000656A002383F31188204600F019F828466F
:100BB00038BD00BFF0090020AFF30080AFF3008024
:100BC000202383F31188837F591C8177002383F3CB
:100BD00011887047AFF30080AFF30080AFF300805F
:100BE0000146202383F31188827F531EDAB2827775
:100BF000002383F3118812B9037F0E2B00D07047B6
:100C0000427F02F00303012B09D0022BF7D1436985
:100C10000269406C1A610A69536101F0B9B943690C
:100C200002691A6101694B6101F0EAB8AFF3008013
:100C3000F0B583B00D4617461E4601F099F80446FC
:100C400090B1202383F31188089C334629463A4605
:100C50000094FFF7A5FE0123437700210446FFF728
:100C6000E7FD002383F31188204603B0F0BD00BFE9
:100C70002DE9F04182B005460E4690461F4601F030
:100C80006FF9044690B1202383F3118869680097B7
:100C900043463246FFF784FE022343774564002132
:100CA0000446FFF7C5FD002383F31188204602B0F8
:100CB000BDE8F081AFF30080AFF30080AFF30080B8
:100CC000202383F3118840F6F012C2F200020023C1
:100CD0001069817F4A1C827783F31188704700BFB7
:100CE00010B5202383F31188074B04699C4209D077
:100CF000A17F4A1CA277002383F31188FFF770FFBE
:100D0000204610BD0024F6E7F0090020AFF3008074
:100D10004060006081607047AFF30080AFF30080F7
:100D2000F8B5876881600137002F044629DC4068E8
:100D3000436863601C60FFF733FD6FF0010607F046
:100D4000010146627D1CEFB149B160684268626092
:100D50001460FFF725FD0135012D466213D0606850
:100D6000436863601C60FFF71BFD46626068416872
:100D700061600C60FFF714FD6A1C46620235002AB0
:100D8000EDD1F8BDF8BDF8BDAFF30080AFF3008042
:100D900008B5202383F31188FFF7C2FFFFF7B8FDE2
:100DA000002383F3118808BDAFF30080AFF3008008
:100DB00082680346501E002810B5986001DB0020B1
:100DC00010BD074CA269536259681360516003203B
:100DD0005A600A60FFF7F4FCA369586A10BD00BFAF
:100DE000F0090020AFF30080AFF30080AFF3008084
:100DF00008B5202383F31188FFF7DAFF002383F37C
:100E0000118808BDAFF30080AFF30080AFF300801E
:100E100003468068421E002A10B40C469A6002DB2A
:100E2000002010BC704759B1074CA26953625C683E
:100E3000032082E818005A60226010BCFFF7D8BC7B
:100E400098604FF0FF30ECE7F0090020AFF300802E
:100E500008B5202383F31188FFF7DAFF002383F31B
:100E6000118808BDAFF30080AFF30080AFF30080BE
:100E700008B50246202383F311888368581C002894
:100E8000906003DD002383F3118808BD10680368B8
:100E9000002113605A60FFF7CBFCF3E7AFF300804B
:100EA00082680346501C0028986000DD70471A686D
:100EB0001168104619604B6000235362FFF770BC45
:100EC000F8B50D1E044637DD83680026581C6A1EDF
:100ED000B042A06002F001072FDD013D2CD077B1B8
:100EE000A3685A1C002AA2602FDD013D07D134E01F
:100EF000A168481C0028A06014DD013D1BD0A0683B
:100F0000431C002BA36005F1FF35F1DC206802686B
:100F100022605460FFF744FC4662A168481C002828
:100F2000A060EADC2068036823605C60FFF738FC9F
:100F3000013D4662E3D1F8BDF8BD2068016821603B
:100F40004C60FFF72DFC4662C7E72068016821600E
:100F50004C60FFF725FC4662C7E7F8BDAFF30080A1
:100F600010B5024682B0202383F311888368581C91
:100F70000028906019DD8A68501E0028886007DB11
:100F8000FFF7C6FC0020002383F3118802B010BDD8
:100F90000B4C4B68A469032084E80A004C601C6079
:100FA0006162FFF70DFC606AEDE71068036813608B
:100FB0005A600191FFF7F4FB002141620199DAE7E1
:100FC000F0090020AFF30080AFF30080AFF30080A2
:100FD0000023406000608360704700BFAFF3008073
:100FE000F8B52F4A836894690546002B51D0A16853
:100FF0009868814206D91A7F9960042A31D0052A5F
:101000001CD092B128460068854203D08368A1684D
:101010008B42F8D242682060626044600420146011
:101020006562BDE8F840FFF7CBBB93E806001160AE
:10103000196818464A60FFF7B3FBE3E758681F6872
:101040005E6A07601F68324678601268964202D076
:1010500090688842F9D251681A6059600B605360F9
:10106000D0E758681F685E6A07601F68324678607C
:101070001268964212D090688842F9D251681A607C
:1010800059600B605360B368A1689A688A42B2D312
:10109000B8E7E36B8460C360E063F8BD3246EDE718
:1010A000F0090020AFF30080AFF30080AFF30080C1
:1010B00008B5202383F31188FFF792FF002383F301
:1010C000118808BDAFF30080AFF30080AFF300805C
:1010D0000246202383F31188836823B10020002374
:1010E00083F31188704704488369D96B9360D1609A
:1010F0000120DA63F3E700BFF0090020AFF30080BE
:10110000154A38B59069202383F31188C46B25688C
:10111000E368A542C3631CD0016C4BB11A689A42C4
:1011200003D09268914238BF1146DB68002BF5D19D
:101130002B68EA6B8160236028465C600021A56013
:10114000E260EC63FFF774FB002383F31188204611
:1011500038BD0023A360F7E7F0090020AFF300805B
:1011600038B5124B9869C46B2568E368A542C36320
:1011700018D0016C4BB11A689A4203D09268914220
:1011800038BF1146DB68002BF5D12B68EA6B816014
:10119000236028465C60A560E260EC63FFF700FB1B
:1011A000204638BD0021A160204638BDF00900204E
:1011B000134A70B52023946983F31188E36BD3B18C
:1011C00000260BE01168D56B196010464B609A60E1
:1011D000DD60D363FFF7E4FAE36B43B11A68D968C3
:1011E0009A42E163EED19E60E36B002BF6D1206C56
:1011F000A060FFF78DFB002383F3118870BD00BF53
:10120000F0090020AFF30080AFF30080AFF300805F
:1012100040600060704700BFAFF30080AFF3008014
:1012200008B50246202383F311880068904205D058
:101230000368002113605A60FFF7FAFA002383F372
:10124000118808BDAFF30080AFF30080AFF30080DA
:1012500008B503460068984206D002681A605360D9
:10126000FFF79EFA0021416208BD00BFAFF3008086
:1012700038B504460068A0420AD06FF00105036843
:1012800023605C60FFF78CFA45622068A042F6D1CB
:1012900038BD00BFAFF30080AFF30080AFF3008034
:1012A00008B5202383F31188FFF7E2FFFFF730FB37
:1012B000002383F3118808BDAFF30080AFF30080F3
:1012C000F8B5104B05469C69FFF74AFF2E460746C6
:1012D0006562284603E08168A268914210D30068E5
:1012E0008542F8D17368266063601C6074600520D5
:1012F000FFF766FA646A3846FFF772FE2046F8BDCB
:101300000646EFE7F0090020AFF30080AFF300805E
:1013100008B5202383F31188FFF7D2FF002383F35E
:10132000118808BDAFF30080AFF30080AFF30080F9
:101330002DE9F04106468846FFF712FF0E4B9A69E9
:101340000746334656621B689E4203D09D689468E8
:10135000A542F8D25C68052082E818004146226068
:101360005A60FFF745FA431C044602D03846FFF79F
:1013700037FE2046BDE8F081F0090020AFF3008081
:1013800008B5202383F31188FFF7D2FF002383F3EE
:10139000118808BDAFF30080AFF30080AFF3008089
:1013A00030B4202383F3118840F6F013C2F2000317
:1013B00004689D690C600024016023464D608A60CA
:1013C000CC6083F3118830BC704700BFAFF300805E
:1013D000202383F31188024600E01A4613688342F3
:1013E00003D09942F9D108681060002383F3118873
:1013F000704700BFAFF30080AFF30080AFF3008011
:1014000010B4202383F3118840F6F012C2F20002D8
:10141000002391698A6B22EA00048C6383F31188AC
:10142000104010BC704700BFAFF30080AFF30080E6
:10143000202383F3118840F6F012C2F20002002349
:101440009269916B0843906383F31188704700BFE2
:1014500008B5826B037F1143082B81630BD0092BE6
:1014600000D008BD426A11408A42FAD1FFF798F9CC
:101470000021416208BD436A1942F7D108BD00BF8F
:1014800008B5202383F31188FFF7E2FFFFF740FA46
:10149000002383F3118808BDAFF30080AFF3008011
:1014A00070B50468A04205460E4608D0201D0BC842
:1014B0003343E360FFF7CCFF2468A542F6D170BD4B
:1014C00008B5202383F31188FFF7EAFFFFF720FA1E
:1014D000002383F3118808BDAFF30080AFF30080D1
:1014E000F8B50D46074689B10024012601E0013414
:1014F00065B106FA04F32B42F9D057F824202046B0
:1015000025EA030501349047002DF2D1F8BD00BF54
:1015100038B50D4B05469C69202383F31188A16BD8
:1015200010EA010206D160620820FFF749F9A16BB9
:1015300005EA01025042104021EA0001A1630023A4
:1015400083F3118838BD00BFF0090020AFF300809D
:1015500038B50B4B05469C69202383F31188A16B9A
:10156000084006D108206562FFF72AF9A16B05EA59
:10157000010021EA0001A163002383F3118838BD33
:10158000F0090020AFF30080AFF30080AFF30080DC
:1015900038B50C4B04469D69202383F31188A86B52
:1015A00004EA0002A24204D009206C62FFF708F9A5
:1015B000A86B20EA0400A863002383F31188204667
:1015C00038BD00BFF0090020AFF30080AFF300800A
:1015D000114B70B59E690546202383F31188B06BCB
:1015E00015EA00040ED121B9234683F31188204661
:1015F00070BD08207562FFF7FBF80028F4DBB06BC4
:1016000005EA000461420C4020EA0400B0630023B4
:1016100083F31188204670BDF0090020AFF30080ED
:10162000104B70B59E690446202383F31188B26B7A
:1016300014EA02050ED121B92B4683F311882846FE
:1016400070BD08207462FFF7D3F80028F4DBB26B9A
:1016500004EA020522EA0502B263002383F311883B
:10166000284670BDF0090020AFF30080AFF3008082
:1016700038B5134B04469D69202383F31188AA6B68
:1016800004EA0203A3420DD029B90B4683F3118863
:101690000C46204638BD09206C62FFF7A9F80028E7
:1016A00008DBAA6B22EA0402AA63002383F31188F1
:1016B000204638BD002383F311881C46F8E700BF9D
:1016C000F0090020AFF30080AFF30080AFF300809B
:1016D00070B50E4B9C69202383F3118800F12C0513
:1016E0006562067F036B25600C2E61636360046393
:1016F0001C6007D00A20FFF763F8606A002383F3B9
:10170000118870BDFFF74CF8F4E700BFF009002026
:1017100010B5202383F311880B4CA3691A4652F8A5
:101720002C0F904208D00168D9624A600B220277E0
:10173000002383F3118810BD0C20FFF741F8A36943
:101740001A4652F82C0FEEE7F0090020AFF30080A4
:1017500008B5202383F31188FFF76AF8002383F389
:10176000118808BDAFF30080AFF30080AFF30080B5
:1017700038B504460B4601EB820500F11C0011460A
:10178000E360A36084E82800FFF7C2FA04F11000C8
:101790000021BDE83840FFF7BBBA00BFAFF30080BF
:1017A00010B52023044683F3118803684168C360A1
:1017B000CA1A9110A36000F11C00FFF7B1FA04F1FE
:1017C00010000021FFF7ACFAFFF7A2F8002383F323
:1017D000118810BDAFF30080AFF30080AFF300803D
:1017E00070B504460E4600F11C001146FFF710FBD1
:1017F000054678B9A368626843F8046B9342A36016
:1018000028BF236804F1100028BFA360FFF748FB3E
:10181000FFF77EF8284670BDAFF30080AFF300807D
:1018200008B5202383F31188FFF7DAFF002383F341
:10183000118808BDAFF30080AFF30080AFF30080E4
:10184000426A002A10B50FDD83684468013A42629B
:1018500043F8041BA342836024BF036883601030F5
:10186000FFF71EFB002010BD4FF0FF3010BD00BF82
:1018700070B504460E4600F11C001146FFF7C8FA89
:10188000054660B9E3682268191F9142E16008D3F8
:1018900004F110000E60FFF703FBFFF739F828464C
:1018A00070BD6068011FE160F2E700BFAFF3008028
:1018B00008B5202383F31188FFF7DAFF002383F3B1
:1018C000118808BDAFF30080AFF30080AFF3008054
:1018D000426A002A10B510DDC3680468043B013A6F
:1018E000A3424262C36002D24368043BC36010302B
:1018F0001960FFF7D5FA002010BD4FF0FF3010BD82
:1019000070B504460E4600F110001146FFF780FA4C
:10191000054680B9E368626853F8041B934231605E
:10192000E36028BF236804F11C0028BFE360FFF7D1
:10193000B7FAFEF7EDFF284670BD00BFAFF3008099
:1019400008B5202383F31188FFF7DAFF002383F320
:10195000118808BDAFF30080AFF30080AFF30080C3
:101960008269002A10B510DDC3684468013A8261BB
:1019700053F8042BA3420A60C36024BF0368C3600A
:101980001C30FFF78DFA002010BD4FF0FF3010BD66
:1019900010B4024659B1084B9B69586244680D2047
:1019A00083E814005360236010BCFEF721BF4FF0A2
:1019B000FF3010BC704700BFF0090020AFF300807B
:1019C00010B4C361019B40608A18002400608460E9
:1019D00041618161C1600261036210BC704700BF58
:1019E00038B50446C368006863610021A042A36162
:1019F000A1600AD06FF00105026822605460FEF712
:101A0000CFFE45622068A042F6D138BDAFF300801A
:101A1000426908B503468069824298681AD001304D
:101A2000986002F8011B19695A618A420BD2186842
:101A300098420DD0016819604B60FEF7B1FE00239B
:101A40004362184608BD1868DA6898425A61F1D1B5
:101A5000002008BD0028E2D06FF0030008BD00BFE1
:101A600070B5202304460E4683F31188C36903B181
:101A70009847A568204631463DB9FFF789FF002801
:101A8000F7DA2B4683F3118870BDA1692269013D05
:101A9000A56011F8010B9142A16124BFE168A16129
:101AA000002383F3118870BDAFF30080AFF3008093
:101AB0002DE9F0471E460446C769202383F31188A9
:101AC0004FF0000801F1010901EB020A0FB12046B5
:101AD000B847A568204631464DB9FFF759FF0028A1
:101AE000F7D02B4683F311884046BDE8F087A36901
:101AF000013DA56013F8012B09F8012C2069A361B1
:101B0000834224BFE368A361002383F31188D14596
:101B100008F10108E8D0202383F3118809F10109B5
:101B2000D4E700BFAFF30080AFF30080AFF30080D5
:101B300010B4C361019B40608C18006082604161F9
:101B40008161C1600461036210BC7047AFF3008023
:101B500038B50269C368044600686361D11AA042BF
:101B6000A361A1600AD06FF00105036823605C6087
:101B7000FEF716FE45622068A042F6D138BD00BFD0
:101B8000F8B504460F461646202383F31188A5684E
:101B9000204631463DB9FFF7FBFE0028F7DA2B4619
:101BA00083F31188F8BD6369013DA56003F8017BEB
:101BB00022696361934228BFE368E16928BF6361DA
:101BC00009B120468847002383F311881846F8BDE1
:101BD000826941699142034610B5806816D0441C61
:101BE0009C6012F8014B19699A618A420BD21868FD
:101BF000984206D0016819604B60FEF7D1FD0023C2
:101C00004362204610BDDA689A61F0E70028E6D00A
:101C10006FF0020010BD00BFAFF30080AFF3008093
:101C20002DE9F0479A46044688461646D0F81C909F
:101C3000202383F311880027A56820466B1EEDB191
:101C4000A360656918F8011B05F8011B226965612D
:101C5000954224BFE2686261B9F1000F00D0C84725
:101C6000002383F311880137013E10D0202383F332
:101C70001188A56820466B1E002DE1D120465146F3
:101C8000FFF786FE0028D7D02B4683F3118838460D
:101C9000BDE8F087AFF30080AFF30080AFF30080C2
:101CA00040F6102240F60C234AF200010648C2F228
:101CB0000002C2F20003C2F2000120F0070021F08E
:101CC0000701106019607047B7130020AFF3008060
:101CD000202383F31188094B09491A6809680730E2
:101CE00020F00700891A88429ABF10181860002255
:101CF000002383F311881046704700BF100A0020AC
:101D00000C0A0020AFF30080AFF30080AFF3008037
:101D100040F60C2240F61023C2F20002C2F2000389
:101D200010681968401A7047AFF30080AFF3008065
:101D300040F61823C2F2000341F6D1410022C0F65A
:101D4000000103F1100019609A60DA60FFF740B9F2
:101D5000002303608160C360083A10300B604A6062
:101D6000FFF736B9AFF30080AFF30080AFF3008028
:101D7000F8B5204E002818BF0646073106F11000BE
:101D800021F0070506F10804FFF792F900E01C4670
:101D90002368FBB15A689542F9D805F108019142D0
:101DA00015D84FF6F870CFF6FF70401B03EB010E0D
:101DB00082181868CEF8042058505D60C4F800E01E
:101DC0001C4644F8086BFFF79BF92046F8BD1968DC
:101DD0002160F5E7FFF794F932684AB105F1080090
:101DE000904728B100F10804066045602046F8BD20
:101DF0000024EAE7180A0020AFF30080AFF3008068
:101E000070B50646A0F1080450F8080C00F108056A
:101E10001030FFF74DF92B46AB421A6801D0A342B0
:101E200002D21AB1944201D31346F5E756F8041CC6
:101E300046F8082C1C6001F1080256F8085CA0184E
:101E4000A84209D05A6802F1080019188C4211D032
:101E5000BDE87040FFF754B94068A258091808312E
:101E600046F8041C46F8082C5A6802F108001918B4
:101E70008C42EDD156F8040C56F8081C12180832A2
:101E800083E80600E4E700BFAFF30080AFF3008013
:101E900038B50E4C002818BF044604F110000D465A
:101EA000FFF706F9A3686BB10022144658681B6857
:101EB00012180134002BF9D105B12A60FFF720F97F
:101EC000204638BD1A461C46F6E700BF180A002017
:101ED0000023036041608260704700BFAFF3008061
:101EE00070B4002A36D0013A02F00105202383F3B2
:101EF0001188046800230C60016083F31188436833
:101F0000C9183AB365B1202383F31188046800230C
:101F10000C60016083F311884368013A194419D0B9
:101F2000202383F31188046800230C60016083F38D
:101F300011884568013A4C19202383F311880668FB
:101F400000234E51046083F311884368013A04EB87
:101F50000301E5D170BC7047AFF30080AFF30080A0
:101F600008B50246202383F31188006828B1016870
:101F70001160002383F3118808BD9368002BF8D00B
:101F800050689847F5E700BFAFF30080AFF30080DB
:101F9000202383F31188026800230A60016083F321
:101FA00011887047AFF30080AFF30080AFF300807B
:101FB00041F2CD03C2F2000301221A70704700BF44
:101FC00038B50B4D4C24286803682D219A6890473A
:101FD00028680168013C8B682D219847013CF2D1AB
:101FE000034804490068026813680222984738BD14
:101FF00000110020C0670008AFF30080AFF300803D
:10200000F0B585B0002837D00DF101054CF6CD466E
:102010002B46CCF6CC46A6FB0012D40804EB840178
:10202000A0EB41003030C1B2204603F8011C1C4631
:1020300001330028EFD16A4694421BD9601BC307C5
:10204000114F11D5386803689A68904714F8021C3C
:10205000013C09E0386814F8021C0368661E9A689F
:10206000904716F8021C023C386803689A6890474B
:10207000AC42EFD105B0F0BD0349086803683021D8
:102080009A689047F6E700BF00110020AFF3008088
:1020900038B5017849B1054D0446286803689A6847
:1020A000904714F8011F0029F7D138BD0011002016
:1020B00038B50178084D41B10446286803689A682C
:1020C000904714F8011F0029F7D1286803490368D5
:1020D00002221B68984738BD00110020C067000825
:1020E000202383F3118841F2D002C2F200020023C0
:1020F000116801F8010B116083F31188704700BF6C
:1021000041B9054A054901231370054A0B70106057
:102110001846704700207047CC100020D4100020D3
:10212000C8100020AFF30080AFF30080AFF3008051
:10213000DFF874C0F0B4184FDCF80060F21BD2076F
:102140003B4614D5BE4217D911F8012B3C787B1CB5
:1021500094420CD016E01B7812F8015BAB4204F1FC
:1021600001030FD14D782478511CAC420AD19E4214
:102170000A4603F10104EED80B781BB9CCF80070C5
:10218000184607E0054A064B01211170054A1970EF
:1021900010600846F0BC704704110020CC100020ED
:1021A000D4100020C8100020D0100020AFF3008011
:1021B000084BDB68521A5B1A934208D3064B074A56
:1021C00001211970064B11701860084670470020F5
:1021D000704700BFE0090020CC100020D410002080
:1021E000C8100020AFF30080AFF30080AFF3008091
:1021F00010B50C4C206808B1FEF74AFC606808B1C5
:10220000FEF746FCA06808B1FEF742FCE06808B1A2
:10221000FEF73EFC206918B1BDE81040FEF738BC5F
:1022200010BD00BFEC100020AFF30080AFF30080C2
:1022300010B5124C206818B1FEF7A2FC00232360F1
:10224000606820B1FEF79CFC0C4800224260A06848
:1022500020B1FEF795FC094B00219960E06820B1A0
:10226000FEF78EFC05480022C260206920B1FEF70F
:1022700087FC024B0021196110BD00BFEC1000204B
:10228000104B30B49C694FF47A7101FB00F0226A64
:1022900044F6D355431EC1F26205501CA5FB035101
:1022A00000EB9115AA42236A03D29A4203D930BCAB
:1022B00070479A42F6D99D4294BF00230123002B18
:1022C000F0D1F4E7F0090020AFF30080AFF3008015
:1022D00008B50120FEF7ECFB40F6E013C2F2000364
:1022E000D86808BDAFF30080AFF30080AFF3008083
:1022F00041F2CD03C2F2000310B500241C7020236C
:1023000083F311884FF47A7101FB00F044F6D35245
:102310000138C1F26202A2FB0023990941F2D80000
:1023200041F6B1722346C2F200000131C0F600024C
:10233000FEF7BEF9234683F3118810BDAFF300808A
:102340002DE9F04F9C4C9D4D206083B09C48FFF7D9
:10235000AFFE9C48FFF7ACFE9B48FFF7A9FE2A2181
:10236000206803689A68904715F8011F0029F7D183
:102370009648974EFFF79CFE2A2120680768BD68A3
:10238000A84716F8011F0029F7D19248924EFFF78F
:102390008FFE2A21206803689A68904716F8011F6B
:1023A0000029F7D18D488E4FFFF782FE2A21206841
:1023B0000568AE68B04717F8011F0029F7D18948B2
:1023C000894FFFF775FE2A21206803689A689047B5
:1023D00017F8011F0029F7D18448854DFFF768FEE3
:1023E0002A2120680668B768B84715F8011F002938
:1023F000F7D18048804DFFF75BFE2A2120680368F3
:102400009A68904715F8011F0029F7D17B487C4E48
:10241000FFF74EFE2A2120680768BD68A84716F816
:10242000011F0029F7D1774B774800910193FFF7FF
:102430003FFE6348754EDFF80C92754FFFF738FE8C
:1024400041F2D4000099C2F200008A4601700AF1FC
:10245000010A4FF0000857F8042B002A00F084808E
:102460006C4DFFF7ADFD2D212068026893689847F9
:1024700015F8011F0029F7D15046FFF7C1FD4E495D
:10248000654D086802682E21936808F10108984795
:102490004046FFF7B5FD2021206802689368984701
:1024A00015F8011F0029F7D157F8040C05682978A1
:1024B00039B1206802689368984715F8011F002910
:1024C000F7D15648564DFFF7F3FDC820FEF7F0FA56
:1024D000544957F804BCC6F80090002008604860D2
:1024E0008860C8600861DBF80420287002B190475A
:1024F000DBF80C309847DBF8081001B18847FFF78C
:1025000097FE2D78002D00F09F80474D2D212068EB
:1025100002689368984715F8011F0029F7D14348CE
:10252000434D0068FFF76CFD202120680268936826
:10253000984715F8011F0029F7D1316849450BD993
:102540003C4D206815F8011C026893689847306874
:10255000294601358142F4D33748FFF7A9FD57F8E2
:10256000042B002A7FF47CAF019D55F8047F019570
:10257000002F7FF46CAFFFF723FD304D1048FFF7BD
:1025800097FD4621206803689A68904715F8011F57
:102590000029F7D141F2D401C2F2000108780028E5
:1025A00056D12748FFF784FD41F2D403C2F200035D
:1025B000187803B0BDE8F08F00110020E467000830
:1025C000A8710008C4670008E067000844680008B4
:1025D0004C68000860680008786800088C6800088B
:1025E000D4680008E8680008F46800080869000872
:1025F0001469000828690008406900085469000847
:102600006C690008C069000880690008D0100020CB
:10261000306A0008F8670008A86900080868000820
:10262000CC100020EC1000200C680008C81000201E
:10263000AC6900080511002024680008B069000892
:1026400034680008041100200348FFF731FD02E759
:102650000248FFF72DFDA7E7286800083C6800083E
:10266000F8B54D4EB3699C68651C2846FEF7E8F93D
:10267000021B5142514107460120FFF741FD00B1C5
:10268000F8BDB06983680220EA1A51425141FFF750
:1026900037FD0028F4D13846FEF7D2F9B5EB000C2F
:1026A000DCF1000050EB0C010320FFF729FD0028AE
:1026B000E6D1B3699A680420B2EB040EDEF10001A2
:1026C00051EB0E01FFF71CFD0028D9D1202383F325
:1026D0001188B769BB689A1CBA60034683F31188F6
:1026E000B0698168A71C0520CB1B5A4252EB03013D
:1026F000FFF706FD0028C3D12846FEF7A1F9001B0D
:10270000414241410620FFF7FBFC0028B8D1B369E4
:102710009A680720B7EB020CDCF1000151EB0C01C9
:10272000FFF7EEFC0028ABD1B069036C0820B5EBD5
:10273000030EDEF1000252EB0E01FFF7E1FC002870
:102740009ED1E71C3846FEF77BF9281A41424141E9
:102750000920FFF7D5FC002892D1B3699A680A20B6
:10276000BB1A59425941FFF7CBFC002888D1B06908
:10277000026C0B20BB1A59425941FFF7C1FC0028DB
:102780007FF47EAF202383F31188B16903468C6008
:102790000C6483F3118873E7F0090020AFF3008025
:1027A000F0B540F6F017C2F2000746F2A076BB691A
:1027B00083B0C0F600069A68706842F6811546F646
:1027C0005021C0F60005C0F60001043A2B460091E6
:1027D0004FF4A871FEF71CF9BC693168A36841F297
:1027E000EC04C2F200045A1F606046F66420C0F692
:1027F00000002B46009008464FF4A871FEF708F938
:10280000BA6931699368206046F65420C0F600002A
:102810005A1E00902B4608464FF4A871FEF7F8F8B0
:10282000BA69F1689268206146F65820C0F6000047
:102830002B460090023A08464FF4A871FEF7E8F8DC
:102840002023E06083F31188BB69B0689A6846F67C
:102850005C21C0F600012B460091033A4FF4A871A9
:10286000FEF79EF8A060002383F31188A068FEF7AE
:10287000FFF8FFF7DDFC46F660210120C0F60001FD
:1028800003B0BDE8F040FFF753BC00BFAFF30080DA
:102890002DE9F04140F6F018C2F2000846F2A076A9
:1028A000D8F8183082B0C0F600069A68306842F650
:1028B000811546F66424C0F60005C0F60004053A0A
:1028C0002B4600944FF4A871FEF7A2F841F2EC04F5
:1028D000C2F20004D8F8181077688B68206046F6BA
:1028E0005020C0F600001A1F00902B464FF4A8712C
:1028F0003846FEF78DF8D8F81820B76893686060FE
:1029000046F65C20C0F60000DA1E00902B464FF41D
:10291000A8713846FEF77CF8D8F81810F7688A686E
:10292000A06046F65820C0F60000023A2B46009000
:102930004FF4A8713846FEF76BF8D8F818303669AE
:102940009A68E06046F65420C0F600004FF4A87183
:10295000013A2B4600903046FEF75AF82061FFF707
:1029600067FC46F660210120C0F6000102B0BDE818
:10297000F041FFF7DDBB00BFAFF30080AFF3008095
:1029800008B50078FFF7ACFB002008BDAFF300806E
:1029900038B51C4DFFF79CFCEC686420FEF788F806
:1029A000012004F1640104F16502FFF701FC00B1AC
:1029B00038BDEC686420FEF77BF8022004F1640166
:1029C00004F16502FFF7F4FB0028F1D1EC684FF445
:1029D0007A70FEF76DF8032004F57A7104F2E9329B
:1029E000FFF7E6FB0028E3D1EC6804F16405284614
:1029F000FEF76EF80420294604F16502BDE8384070
:102A0000FFF7D6BBE0090020AFF30080AFF30080F2
:102A100040F60000C2F200000021FEF779B900BFC5
:102A200040F60000C2F200000021FEF771B900BFBD
:102A300040F60000C2F200000021FEF769B900BFB5
:102A400000B587B0002103A8FEF762F9002103A8B2
:102A5000FEF79EF9059901200029CCBF0021012134
:102A6000FFF74EFB08B107B000BD304B9869304B03
:102A70008268304803A9013A009100684FF4A871B8
:102A8000FDF7C6FF2C4B186003A8FEF7B1F90599B6
:102A900002200029CCBF00210121FFF731FB0028D3
:102AA000E1D1202383F31188059A002A36DDFDF752
:102AB0002FFF002383F31188059903209942D4BF87
:102AC00000210121FFF71CFB0028CCD1059904202F
:102AD0004B1E5A4252EB0301FFF712FB0028C2D1F2
:102AE000202383F31188059800281BDDFDF710FFD4
:102AF000002383F31188059903209942D4BF002154
:102B00000121FFF7FDFA0028ADD1059905204B1EE4
:102B10005A4252EB0301FFF7F3FAA4E703A8FEF7CA
:102B2000BFF9C4E703A8FEF7BBF9DFE7F00900200F
:102B3000412B0008A0670008EC100020AFF30080D4
:102B400008B5202383F311888368002B06DDFDF789
:102B5000DFFE002383F31188184608BDFEF7A0F9B5
:102B6000F5E700BFAFF30080AFF30080AFF3008064
:102B700010B540F60004C2F200042046FEF738F912
:102B80002046FEF775F9002010BD00BFAFF30080AE
:102B900010B5044640F60000C2F20000FEF728F926
:102BA0002078FFF79DFA002010BD00BFAFF3008032
:102BB00008B53220FDF77CFF202383F3118840F60F
:102BC0000000C2F20000FEF76BF9FDF7A1FE002342
:102BD00083F31188184608BDAFF30080AFF300807F
:102BE0002DE9F043DFF84481464CD8F818302668C8
:102BF0009A68454F454B464D85B04FF4A871053254
:102C000000973046FDF704FFD8F8181063688A680B
:102C10002860404803934FF4A87101323B4B009069
:102C20000398FDF7F5FED8F81810A2688B68686065
:102C3000394803924FF4A871DA1C0090334B039883
:102C4000FDF7E6FED8F81810E2688B68A8603348F4
:102C500003924FF4A8711A1D00902C4B0398FDF7B6
:102C6000D7FED8F8181024698A68E8602C48274BEA
:102C700000904FF4A87102322046FDF7C9FE294C9E
:102C800028612046FEF7F4F82046FEF7F1F82046CA
:102C9000FEF7EEF82046FEF7EBF82046FEF7E8F8E0
:102CA000FFF7C6FA01202049FFF742FA814610B12A
:102CB00005B0BDE8F083D8F81810144B8A68009767
:102CC00030464FF4A8710532FDF7A2FE202328609C
:102CD00083F3118802212046FEF7F2F8FDF718FE73
:102CE0004B4683F31188FFF7A3FAA3680220B3F1E0
:102CF000010EDEF1000151EB0E0105B0BDE8F0431D
:102D0000FFF7FEB9A0670008546A0008912B00087D
:102D1000EC100020586A00085C6A0008506A00083D
:102D2000646A000800080020606A0008F0090020BA
:102D300010B5224B224C9869224B826882B0002049
:102D40000090214801324FF4A8710068FDF760FE41
:102D50001E4B214618602046FEF702F9216801202B
:102D60000A1B534253EB0201FFF7CAF908B102B044
:102D700010BDA1680220D1F1010138BF0021FFF789
:102D8000BFF90028F3D121462046FEF7E9F8226872
:102D90000320B2EB040CDCF1000353EB0C01FFF752
:102DA000AFF90028E3D1A1680420D1F1010138BFB7
:102DB000002102B0BDE81040FFF7A2B9F0090020E1
:102DC00000080020712B0008A0670008EC1000200C
:102DD00070B5A04C002182B02046FEF739F8B0F162
:102DE000FF33594259410120FFF78AF908B102B077
:102DF00070BD22680220B2EB040CDCF1000353EB3F
:102E00000C01FFF77DF90028F1D1A1680320D1F171
:102E1000010138BF0021FFF773F90028E7D18E4D7B
:102E20008E4BAA69916800908D484A1E00684FF445
:102E3000A871FDF7EDFD8B4B4FF4FA711860204639
:102E4000FEF706F80546FFF7F3F90420D5F1010176
:102E500038BF0021FFF754F90028C8D122680520A7
:102E6000B2EB040EDEF1000151EB0E01FFF748F961
:102E70000028BCD1A3680620D3F1010138BF00218E
:102E8000FFF73EF90028B2D1774EFFF721FA412033
:102E9000F668FFF725F94FF4FA712046FDF7D8FFE1
:102EA000B0F1FF30424252EB00010720FFF728F952
:102EB00000289CD1216808200B1B5A4252EB0301C9
:102EC000FFF71EF9002892D1A1680920D1F1010174
:102ED00038BF0021FFF714F9002888D14220FFF7FE
:102EE000FFF84FF4FA712046FDF7B2FFB0F1FF3C56
:102EF000DCF1000050EB0C010720FFF701F900287E
:102F00007FF475AF23680820B3EB040EDEF10002F6
:102F100052EB0E012546FFF7F3F800287FF467AF68
:102F2000A1680920D1F1010138BF0021FFF7E8F8BD
:102F300000287FF45CAF4320FFF7D2F84FF4FA711A
:102F40002046FDF785FFB0F1FF30434253EB00010F
:102F50000720FFF7D5F800287FF449AF2268082042
:102F6000131B59425941FFF7CBF800287FF43FAFBC
:102F7000A2680920D2F1010138BF0021FFF7C0F893
:102F800000287FF434AF4420FFF7AAF84FF4FA7119
:102F90002046FDF75DFFB0F1FF3CDCF1000050EB97
:102FA0000C010720FFF7ACF800287FF420AF23685E
:102FB0000820B3EB040EDEF1000151EB0E01FFF728
:102FC0009FF800287FF413AFA2680920D2F1010115
:102FD00038BF0021FFF794F800287FF408AF4520A0
:102FE000FFF77EF84FF4FA712046FDF731FFB0F19C
:102FF000FF30434253EB00010720FFF781F8002820
:103000007FF4F5AE216808200A1B534253EB0201FE
:10301000FFF776F800287FF4EAAEA1680920D1F125
:10302000010138BF0021FFF76BF800287FF4DFAE05
:103030000A200E49FFF77CF800287FF4D8AE0B2059
:1030400006F6C41106F6C91202B0BDE87040FFF7DB
:10305000AFB800BF00080020F0090020B12B000825
:10306000A0670008EC100020E0090020606A00085A
:10307000F0B540F6F013C2F2000346F2A07599696C
:1030800083B08E68C0F6000546F65424C0F60004EE
:1030900043F29113721C009428684FF4A871C0F693
:1030A0000003FDF7B5FC41F2EC04C2F200046F68C6
:1030B000206046F65C20C0F6000043F26113B21CAB
:1030C00000904FF4A871C0F600033846FDF7A0FC4D
:1030D000AD68606046F65820C0F6000043F2211348
:1030E0004FF4A871F21CC0F6000300902846FDF7CB
:1030F0008FFC40F62C05C2F20005A0602846FEF7C2
:103100008FF82846FEF78CF8FFF792F846F6E03184
:103110000120C0F6000103B0BDE8F040FFF708B899
:1031200010B5044640F61C00C2F20000FDF7C0FFD7
:103130002078FEF7D5FFFDF7E3FF002010BD00BFAC
:1031400010B5044640F60C00C2F20000FDF7B0FFD7
:103150002078FEF7C5FFFDF7D3FF002010BD00BFAC
:1031600010B5044640F60C00C2F20000FDF7A0FFC7
:1031700040F62C00C2F20000FEF7CAF82078FEF7F5
:10318000AFFFFDF7BDFF002010BD00BFAFF3008013
:1031900010B5044640F61C00C2F20000FDF788FF9F
:1031A00040F60C00C2F20000FDF782FF40F62C0052
:1031B0004FF0FF31C2F20000FEF7E2F82078FEF790
:1031C0008FFFFDF79DFFFDF79BFF002010BD00BFA7
:1031D00040F62C0008B5C2F20000FEF719F840F6E0
:1031E0000C00C2F20000FDF7F3FE40F61C00C2F234
:1031F0000000BDE80840FDF7EBBE00BFAFF3008064
:1032000008B540F62C00C2F20000FEF701F840F6C7
:103210000C00C2F20000BDE80840FDF7D9BE00BFB7
:1032200008B540F62C00C2F20000FDF7F1FF40F6B1
:103230000C00C2F20000BDE80840FDF7C9BE00BFA7
:1032400040F60C00C2F20000FDF7C2BEAFF30080F2
:1032500008B540F60C00C2F20000FDF7B9FE40F6DA
:103260001C00C2F20000BDE80840FDF7B1BE00BF7F
:1032700008B540F60C00C2F20000FDF7A9FE40F6CA
:103280001C00C2F20000BDE80840FDF7A1BE00BF6F
:1032900040F60C00C2F20000FDF79ABEAFF30080CA
:1032A00040F60C00C2F20000FDF792BEAFF30080C2
:1032B000F0B540F6F013C2F2000346F2A076996929
:1032C00083B08F68C0F6000643F2611546F66424A9
:1032D000C0F60005C0F600047A1C2B460094306846
:1032E0004FF4A871FDF794FB41F2EC04C2F2000424
:1032F000BA1C206046F65020C0F600002B46009015
:103300004FF4A8717068FDF783FB606046F65C209F
:10331000C0F60000FA1C2B4600904FF4A871B0686C
:10332000FDF776FBA06046F65820C0F600003A1D77
:103330002B4600904FF4A871F068FDF769FB3669E1
:10334000E06046F65420C0F600004FF4A8717A1DE4
:103350002B4600903046FDF75BFB206140F62C00C9
:10336000C2F20000FDF79CFFFEF762FF46F6602107
:103370000120C0F6000103B0BDE8F040FEF7D8BE62
:10338000F0B540F6F013C2F2000346F2A076996958
:1033900083B08F68C0F6000643F2611546F66424D8
:1033A000C0F60005C0F600047A1C2B460094306875
:1033B0004FF4A871FDF72CFB41F2EC04C2F20004BB
:1033C0007168206046F65020C0F60000BA1C2B46FB
:1033D000009008464FF4A871FDF71AFBB1686060D1
:1033E00046F65C20C0F60000FA1C2B46009008460A
:1033F0004FF4A871FDF70CFBF168A06046F6582069
:10340000C0F600003A1D2B46009008464FF4A87104
:10341000FDF7FEFA3269E06046F65421C0F600017D
:103420002B46009110464FF4A8717A1DFDF7F0FA73
:103430002023206183F3118840F62C04C2F200049B
:103440002046FDF705FF2046FDF702FF2046FDF769
:10345000FFFE2046FDF7FCFE2046FDF7F9FEFDF7D6
:1034600057FA002383F31188FEF7E2FE46F6602147
:103470000120C0F6000103B0BDE8F040FEF758BEE1
:10348000F0B52C4F2C48BB692C4E9C682C4D85B058
:10349000FDF70EFE2B4A30682B4B00924FF4A871BB
:1034A000621CFDF7B5FA7168286028480391A21CD8
:1034B0004FF4A871244B00900398FDF7A9FAB36864
:1034C000686023480393E21C4FF4A8711E4B0090E0
:1034D0000398FDF79DFAF268A8601E4803924FF426
:1034E000A871221D184B00900398FDF791FA3669D8
:1034F000E8601948144B00904FF4A871621D3046E3
:10350000FDF786FA2861FDF7FBFDFEF791FEB9692C
:103510008B6801201A1B51425141FEF7F1FD08B1A1
:1035200005B0F0BD0D49022005B0BDE8F040FEF742
:10353000FFBD00BFF00900200C080020A0670008B4
:10354000EC100020646A000841310008506A00084D
:103550005C6A0008586A0008546A0008606A00083B
:10356000F8B52E4D2E4CAB6920469E68FDF7B0FD98
:1035700001460120FEF7C4FD00B1F8BD2046FDF76D
:10358000A7FD80F00101C9B20220FEF7B9FD074690
:103590000028F2D1202383F31188FDF7E1FD3B469B
:1035A00083F3118822680320B2EB040CDCF10003E2
:1035B00053EB0C01FEF7A4FD0028DED1A168042026
:1035C000D1F1010138BF0021FEF79AFD0028D4D1C6
:1035D000A86982680520B2EB060EDEF1000353EB0A
:1035E0000E01FEF78DFD0028C7D12046FDF760FDD6
:1035F000FDF7DEFD216806200A1B534253EB020152
:10360000FEF77EFD0028B8D1A1680720D1F10101A5
:1036100038BF0021BDE8F840FEF772BDF009002078
:103620000C080020AFF30080AFF30080AFF3008000
:103630002DE9F0468D4D8E4EAB6932689C688D4801
:103640008D4B8E4F85B004F10109039200904FF429
:10365000A8714A460398FDF7DBF976683860884818
:10366000884B009004F1020A4FF4A871524630468C
:10367000FDF7CEF978608448FDF71AFDA9698B68DB
:1036800001201A1B51425141FEF73AFD10B105B01D
:10369000BDE8F0866420FDF70BFAA8698368022074
:1036A000B3EB090251425141FEF72AFD0028EED149
:1036B0007648FDF7FDFCA86983680320B3EB090C8D
:1036C000DCF1000252EB0C01FEF71AFD0028DED1FE
:1036D0006420FDF7EDF9A9698B680420B3EB0A0EAD
:1036E000DEF1000252EB0E01FEF70AFD0028CED1FA
:1036F000FDF706FDA86981680520B1EB09035A4270
:1037000052EB0301FEF7FCFC0028C0D16420FDF75A
:10371000CFF9A86981680620B1EB09035A4252EB40
:103720000301FEF7EDFC0028B1D1FDF741FDA869CA
:1037300081680720B1EB040CDCF1000353EB0C01B2
:10374000FEF7DEFC0028A2D1FEF772FD504A4A4B7C
:1037500000924FF4A8714A460398FDF759F9386072
:103760004C48484B00904FF4A87152463046FDF744
:103770004FF978604448FDF79BFCA9698B680820E5
:10378000B3EB040EDEF1000252EB0E01FEF7B8FCC3
:1037900000287FF47CAF6420FDF78AF9A86981686E
:1037A0000920B1EB09035A4252EB0301FEF7A8FCD2
:1037B00000287FF46CAF3548FDF77AFCA869816872
:1037C0000A20B1EB09035A4252EB0301FEF798FCC1
:1037D00000287FF45CAF6420FDF76AF9AE69B16838
:1037E0000B20B1EB0A0CDCF1000353EB0C01FEF7EC
:1037F00087FC064600287FF44AAF202383F3118814
:10380000FDF7AEFCFDF784F8334683F31188A86911
:1038100082680C20B2EB090EDEF1000151EB0E01C3
:10382000FEF76EFC00287FF432AF6420FDF740F90C
:10383000AB699A680D20B2EB090359425941FEF772
:103840005FFC00287FF423AFFDF7B2FCA869826813
:103850000E20131B59425941FEF752FC00287FF4F9
:1038600016AF05B0BDE8F046FEF7E2BCF009002057
:10387000A0670008586A0008C1380008EC10002052
:10388000546A0008A13800081C0800200C08002019
:10389000506A00085C6A0008AFF30080AFF3008054
:1038A00008B59620FDF704F940F60C00C2F20000BE
:1038B000FDF7FEFBFDF724FC002008BDAFF3008000
:1038C00008B53220FDF7F4F840F61C00C2F2000003
:1038D000FDF7EEFBFDF714FC002008BDAFF3008000
:1038E0002DE9F041304EDFF8E480304C84B0FEF733
:1038F000EFFCB3692E499A68CF682E4BD8F80000C8
:1039000000254FF4A871053A0095FDF781F8B369D9
:10391000D8F804209B68039220601A1F4FF4A87106
:10392000254B00950398FDF773F8B169D8F8082086
:103930008B6803926060DA1E4FF4A8711F4B0095EC
:103940000398FDF765F8B169D8F80C208B680392ED
:10395000A0609A1E4FF4A871194B00950398FDF7CB
:1039600057F8B169D8F810608A68164BE0604FF4D8
:10397000A871013A00953046FDF74AF82061FEF73C
:1039800057FC01201049FEF7D3FB10B104B0BDE88D
:10399000F081022007F16E0107F1730204B0BDE867
:1039A000F041FEF705BC00BFF0090020EC1000203C
:1039B000E0090020513B0008013B0008D13A000813
:1039C000B13A0008813A0008606A0008A067000860
:1039D0002DE9F041224EDFF8A480224C84B0FEF79E
:1039E00077FCB36920499A68CF68204BD8F800006B
:1039F00000254FF4A871013A0095FDF709F8B36965
:103A0000D8F804209B68039220609A1E4FF4A87196
:103A1000174B00950398FCF7FBFFB169D8F80860D5
:103A20008A68144B60604FF4A871033A00953046E1
:103A3000FCF7EEFFA060FEF7FBFB01200E49FEF74E
:103A400077FB10B104B0BDE8F081022007F16401FA
:103A500007F1690204B0BDE8F041FEF7A9BB00BF61
:103A6000F0090020EC100020E0090020D13B000804
:103A7000B13B0008813B0008E06B0008A06700082C
:103A800008B53220FDF714F840F61C00C2F2000021
:103A9000FDF70EFB0A20FEF7F3FBFDF731FB41209B
:103AA000FEF71EFB002008BDAFF30080AFF30080DF
:103AB00008B52820FCF7FCFF1420FEF7E1FB4220AC
:103AC000FEF70EFB002008BDAFF30080AFF30080CF
:103AD00008B51420FCF7ECFF40F61C00C2F2000011
:103AE000FDF7E6FA0A20FEF7CBFBFDF709FB4320C2
:103AF000FEF7F6FA002008BDAFF30080AFF30080B8
:103B000008B50A20FCF7D4FF40F61C00C2F2000002
:103B1000FDF7CEFA1420FEF7B3FB40F60C00C2F21C
:103B20000000FDF7C5FA0A20FEF7AAFBFDF7E8FA48
:103B30000A20FEF7A5FBFDF7E3FA4420FEF7D0FAD2
:103B4000002008BDAFF30080AFF30080AFF300802A
:103B500040F60C0008B5C2F20000FDF7A9FA1E20DD
:103B6000FEF78EFBFDF7CCFA4520FEF7B9FA0020F0
:103B700008BD00BFAFF30080AFF30080AFF300805B
:103B800040F60C0008B5C2F20000FDF791FA2820BB
:103B9000FEF776FBFDF7B4FA0A20FEF771FB43202F
:103BA000FEF79EFA002008BDAFF30080AFF300805F
:103BB00008B51420FCF77CFF2820FEF761FB4220AB
:103BC000FEF78EFA002008BDAFF30080AFF300804F
:103BD00008B52820FCF76CFF40F60C00C2F200008C
:103BE000FDF766FA0A20FEF74BFBFDF789FA412044
:103BF000FEF776FA002008BDAFF30080AFF3008037
:103C000010B540F6F012C2F2000246F2A0739169BC
:103C1000C0F6000382B08C681868009143F69143A7
:103C2000C0F60003621C4FF4A871FCF7F1FE41F2EC
:103C3000EC02C2F200021060FDF76AFD446B2146FF
:103C4000FDF786FDE0B2FEF74BFAFDF761FD446B30
:103C50002146FDF77DFDE0B2FEF742FAFDF758FD83
:103C6000446B2146FDF774FDE0B2FEF739FA46F6E3
:103C7000E0310120C0F6000102B0BDE81040FEF7BF
:103C800057BA00BFAFF30080AFF30080AFF30080FE
:103C900010B541210446FDF71BFD42212046FDF7EA
:103CA00017FD20464321FDF713FD002010BD00BF86
:103CB000F0B57D4C616A01204B1F5A4283B052EB34
:103CC0000301FEF71DFA002845D1422120464FF09E
:103CD000FF32FDF7A5FDD0F1010138BF0021022020
:103CE000FEF70EFAB8BB432120464FF0FF32FDF736
:103CF00097FDD0F1010138BF00210220FEF700FA44
:103D000048BB442120464FF0FF32FDF789FDD0F13A
:103D1000010138BF00210220FEF7F2F9D8B9452190
:103D200020464FF0FF32FDF77BFDD0F1010138BF97
:103D300000210220FEF7E4F968B9412120464FF046
:103D4000FF32FDF7B5FDD0F1010138BF002103209E
:103D5000FEF7D6F908B103B0F0BD58210122204684
:103D6000FDF75EFDB0F1FF3CDCF1000050EB0C0113
:103D70000420FEF7C5F905460028ECD1202383F383
:103D8000118858212046FDF75BFD2B46014683F341
:103D900011880520B1F1FF3EDEF1000353EB0E0167
:103DA000FEF7AEF90028D6D1582101222046FDF7B2
:103DB0007FFDB0F1FF356A4252EB05010620FEF7A8
:103DC0009FF905460028C6D1202383F31188582186
:103DD0002046FDF77DFD2B46014683F31188072021
:103DE000B1F1FF335A4252EB0301FEF789F9002883
:103DF000B1D1202383F31188676A0820D7F101012C
:103E000038BF0021FEF77CF92646074618B100238B
:103E100083F311889FE7034683F31188202383F3FC
:103E20001188A5690920B5F1050CDCF1000151EB01
:103E30000C01FEF765F9054618B13B4683F311887E
:103E400089E7034683F31188202383F31188A3684D
:103E5000E2680A20B2EB030EDEF1000151EB0E0125
:103E6000FEF74EF90346D0B983F31188052605E025
:103E70009DF80400FEF734F9013E17D00A4D01A960
:103E80004FF0FF322846FDF75BFDD0F1010138BF4E
:103E900000210B20FEF734F90028E9D05BE72B4620
:103EA00083F3118857E700BF340800200C20C8496D
:103EB000FEF73EF900287FF44EAF472128464FF029
:103EC000FF32FDF7ADFCD0F1010138BF00210D201C
:103ED000FEF716F900287FF43EAF01A928464FF0FF
:103EE000FF32FDF72DFDD0F1010138BF00210E207A
:103EF000FEF706F900287FF42EAF2A68AB680F2082
:103F0000D21A51425141FEF7FBF800287FF423AF4B
:103F10002A68EB681020D21A51425141FEF7F0F89E
:103F200000287FF418AF01A901222846FDF708FDFB
:103F3000B0F1FF30434253EB00011120FEF7E0F8EF
:103F400000287FF408AF202383F31188284601A9B5
:103F5000FDF706FD3346024683F311881220B2F1C5
:103F6000FF3CDCF1000151EB0C01FEF7C9F8002821
:103F70007FF4F1AE202383F311886B6A13205A1F5C
:103F800051425141FEF7BCF8002383F31188002809
:103F90007FF4E1AE202383F31188A5698D4C1420B2
:103FA000D5F1010138BF0021FEF7AAF80546002827
:103FB0007FF42DAF034683F31188202383F3118808
:103FC000A368E2681520D21A51425141FEF798F8D1
:103FD000034600287FF463AF83F31188202383F323
:103FE000118841212046FDF72BFCD0F1010138BF9B
:103FF00000211620FEF784F800287FF4ACAE4221A1
:104000002046FDF71DFCD0F1010138BF002117202B
:10401000FEF776F800287FF49EAE43212046FDF798
:104020000FFCD0F1010138BF00211820FEF768F81D
:1040300000287FF490AE44212046FDF701FCD0F12A
:10404000010138BF00211920FEF75AF80546002863
:104050007FF481AE20464521FDF7F2FB2B46024658
:1040600083F311881A20D2F1010138BF0021FEF735
:1040700047F800287FF46FAEE168A3681B20B1EB1E
:10408000030EDEF1000252EB0E01FEF739F80028B4
:104090007FF461AE0525202383F311884D4C01A9DF
:1040A0002046FDF75DFC0023014683F311881C20A8
:1040B000CB1A5A4252EB0301FEF722F800287FF494
:1040C0004AAE9DF80400FEF70BF8013DE3D11D2038
:1040D0003F49FEF72DF800287FF43DAE202383F3FF
:1040E0001188616A1E204B1F5A4252EB0301FEF7F2
:1040F00007F82B4683F3118800287FF42CAE202389
:1041000083F31188A1691F20D1F1010138BF00217B
:10411000FDF7F6FF2B4683F3118800287FF41BAED2
:10412000E268A3682020D21A51425141FDF7E8FF0E
:1041300000287FF410AE202383F311884521204608
:10414000FDF7C6FBD0F1010138BF00212120FDF7AA
:10415000D7FF00287FF4FFAD44212046FDF7B8FBD0
:10416000D0F1010138BF00212220FDF7C9FF00284E
:104170007FF4F1AD43212046FDF7AAFBD0F1010108
:1041800038BF00212320FDF7BBFF00287FF4E3ADFB
:1041900042212046FDF79CFBD0F1010138BF0021F0
:1041A0002420FDF7ADFF00287FF4D5AD094C412157
:1041B0002046FDF78DFB0023024683F3118825205E
:1041C000B2EB030CDCF1000353EB0C0104E000BF85
:1041D000606A000834080020FDF792FF00287FF491
:1041E000BAADE168A2682620B1EB020EDEF1000351
:1041F00053EB0E01FDF784FF00287FF4ACAD0524DE
:10420000202383F311884A4D01A92846FDF7A8FB16
:104210000023014683F311882720CA1A534253EB27
:104220000201FDF76DFF00287FF495AD9DF80400B5
:10423000FDF756FF013CE3D128203E49FDF778FF0A
:1042400000287FF488AD202383F31188696A292030
:104250004A1F534253EB0201FDF752FF234683F3FB
:10426000118800287FF477AD202383F31188A96992
:104270002A20D1F1010138BF0021FDF741FF23467B
:1042800083F3118800287FF466ADEA68AB682B20C1
:10429000B2EB030CDCF1000151EB0C01FDF730FF38
:1042A00000287FF458AD2846FDF77AFA202383F3DF
:1042B00011886A6A2C20B2F1050EDEF1000353EB7F
:1042C0000E01FDF71DFF234683F3118800287FF4BC
:1042D00042AD202383F31188A9692D20D1F101017A
:1042E00038BF0021FDF70CFF234683F31188002817
:1042F0007FF431AD202383F31188AB682A682E2028
:10430000D21A51425141FDF7FBFE234683F3118837
:1043100000287FF420AD202383F311882A68EB68FE
:104320002F20D21A51425141FDF7EAFE6FE500BF3E
:1043300034080020606A0008AFF30080AFF300800B
:1043400040F6340040F63821C2F20000C2F200010B
:104350000522FDF70DBA00BFAFF30080AFF3008078
:104360004FF0FF30FDF74CB8AFF30080AFF30080A3
:104370004FF0FF30FDF744B8AFF30080AFF300809B
:104380004FF0FF30FDF73CB8AFF30080AFF3008093
:104390002DE9F04205208CB0FDF74AF84FF0FF30D0
:1043A000FDF7B6F80138414241410120FDF7A8FE72
:1043B00010B10CB0BDE8F0824FF0FF30FDF7A8F867
:1043C000021F534253EB02010220FDF799FE002821
:1043D000EFD14FF0FF30FDF713F8D0F1010138BFF6
:1043E00000210320FDF78CFE0028E2D1744D754FAB
:1043F000754EFDF76DFF7549AC690A68A0680392B8
:104400004FF4A871421E724B00940398FC68FCF7AD
:10441000FFFA30604FF0FF30FDF77AF804F1320117
:10442000814604F137020420FDF7C2FE0028C0D106
:104430000520B9F1010359425941FDF761FE0028F9
:10444000B7D14FF0FF30FCF7DBFFD0F1010138BFEF
:1044500000210620FDF754FE0028AAD1FDF7E8FE52
:104460000520FCF7E5FF4FF0FF30FDF771F8B0F1E4
:10447000050CDCF1000050EB0C010720FDF740FEBD
:10448000002896D14FF0FF30FCF7BAFFD0F10101C0
:1044900038BF00210820FDF733FE002889D1FDF741
:1044A00017FFAC694A4BA268039800944FF4A871B7
:1044B000013AFC68FCF7ACFA30604FF0FF30FDF7D2
:1044C00047F804F13201814604F137020920FDF773
:1044D0006FFE00287FF46DAF0A20B9F1010EDEF106
:1044E000000353EB0E01FDF70BFE00287FF461AFD4
:1044F0004FF0FF30FCF784FFD0F1010138BF0021FD
:104500000B20FDF7FDFD00287FF453AFDFF8D090BE
:10451000304CFDF78DFE484604A90122C9F80090F1
:104520002460FCF73DFF08A904222046FCF738FF71
:10453000FDF7CEFEAD692849A868284B0091421EC0
:104540004FF4A8710398FD68FCF762FA306005200B
:10455000FDF71EF80C2005F1320105F13702FDF7D9
:1045600027FE00287FF425AF4FF0FF30FCF748FF0F
:10457000D0F1010138BF00210D20FDF7C1FD002859
:104580007FF417AFFDF754FE484604A9FCF720FF5F
:10459000204608A9FCF71CFFD9F800200E20B2EB3A
:1045A000090359425941FDF7ABFD00287FF401AFE3
:1045B00022680F20131B59425941FDF7A1FDF8E66F
:1045C000F0090020E0090020EC100020A06700089E
:1045D0002146000860080020546A0008F1450008E0
:1045E0005C080020AFF30080AFF30080AFF30080E1
:1045F00040F65C0008B50021C2F20000FCF760FF45
:104600003220FCF755FA40F66000C2F200000021AB
:10461000FCF756FF002008BDAFF30080AFF3008029
:1046200010B504463220FCF743FA20460121FCF77E
:1046300027FF002010BD00BFAFF30080AFF3008064
:1046400010B51E4C88B00122204669462460FCF754
:10465000A7FE204604A90222FCF7A2FE2168012041
:10466000091B18BF0121FDF74BFD08B108B010BDB3
:1046700020466946FCF7ACFE22680220111B18BFD9
:104680000121FDF73DFD0028F0D1204604A9FCF7EB
:104690009FFE23680320B3EB040EDEF1000151EB13
:1046A0000E01FDF72DFD0028E0D107210448FCF79D
:1046B00017FF04200349FDF73BFDD7E75C08002006
:1046C000406E0008E06B0008AFF30080AFF300809D
:1046D0004320FDF705BD00BFAFF30080AFF30080BE
:1046E0004220FDF7FDBC00BFAFF30080AFF30080B8
:1046F0004120FDF7F5BC00BFAFF30080AFF30080B1
:1047000008B500214FF0FF30FCF762FFD0F1010146
:1047100038BF00210120FDF7F3FC00B108BD0146C0
:104720004FF0FF30FCF77CFFD0F1010138BF0021D2
:104730000220FDF7E5FC0028F0D101464FF0FF30E4
:10474000FCF796FFD0F1010138BF00210320FDF7EF
:10475000D7FC0028E2D10A214FF0FF30FCF738FFE8
:10476000D0F1010138BF00210420FDF7C9FC002869
:10477000D4D10A214FF0FF30FCF752FFD0F10101F4
:1047800038BF00210520FDF7BBFC0028C6D10A2157
:104790004FF0FF30FCF76CFFD0F1010138BF002172
:1047A0000620BDE80840FDF7ABBC00BFAFF30080BA
:1047B00070B582B0FDF7ACFA01A90020FDF768FBE7
:1047C00010210020FDF7D4FA011C18BF0121044676
:1047D0000120FDF795FC054608B102B070BD2046EA
:1047E000FDF70EFB6FF0FF012846FDF7C1FAD0F18F
:1047F000010138BF00210220FDF782FC0028ECD126
:1048000001A97E48FDF744FB10217C48FDF7B0FA72
:10481000102105467948FDF7ABFA10210446774888
:10482000FDF7A6FA06462846FDF7EAFA2046FDF708
:10483000E7FA3046FDF7E4FA69467048FDF728FBD1
:10484000B0F1010EDEF1000151EB0E010320FDF786
:1048500057FC0028C1D110216848FDF789FA1021C2
:1048600004466648FDF784FA102105466348FDF7C3
:104870007FFAFDF7C5FA2846FDF7C2FA2046FDF794
:10488000BFFA69465D48FDF703FB0138424252EB2F
:1048900000010420FDF734FC00289ED11121574867
:1048A000FDF766FA102104465448FDF761FA054603
:1048B0002046FDF7A5FA69465048FDF7E9FA831E40
:1048C000594259410520FDF71BFC002885D11021D4
:1048D0004A48FDF74DFA694604464848FDF7D8FABC
:1048E000012800F0898069464448FDF7D1FA023872
:1048F000424252EB00010620FDF702FC00287FF443
:104900006CAF2846FDF77CFA2046FDF779FA694638
:104910003A48FDF7BDFAB0F1010CDCF1000353EBAE
:104920000C010720FDF7ECFB00287FF456AF1021A7
:104930003248FDF71DFA102105463048FDF718FAF8
:1049400004462846FDF75CFA69462C48FDF7A0FAB4
:10495000B0F1020EDEF1000151EB0E010820FDF76F
:10496000CFFB00287FF439AF20212448FDF700FA5F
:10497000FDF746FA2046FDF743FA69461F48FDF762
:1049800087FA0138424252EB00010920FDF7B8FBDB
:1049900000287FF422AF69461848FDF779FA00999C
:1049A0001648FDF7E5F9694604461448FDF770FA24
:1049B000D0F1010138BF00210A20FDF7A1FB00283A
:1049C0007FF40BAF2046FDF71BFA69460B48FDF755
:1049D0005FFA431E594259410B20FDF791FB002815
:1049E0007FF4FBAE9DE80A000C20CA1A534253EB39
:1049F0000201FDF785FBF0E601467CE71811002077
:104A000041F2181040F63821C2F20000C2F2000153
:104A10004FF4D262FDF79CB9AFF30080AFF3008092
:104A200000207047AFF30080AFF30080AFF3008049
:104A300040F66400C2F200004FF4A8710022FDF7B6
:104A400047BA00BFAFF30080AFF30080AFF3008040
:104A500038B5574C5748256805222946FDF740FAD6
:104A60005448FDF77DFA011C18BF01210120FDF714
:104A700047FB002840F08A804E48FDF771FA011C80
:104A800018BF01210120FDF73BFB00287ED14948DA
:104A9000FDF766FA011C18BF01210120FDF730FB6C
:104AA000002873D14348FDF75BFA011C18BF0121B0
:104AB0000120FDF725FB002868D13E48FDF750FA9C
:104AC000011C18BF01210120FDF71AFB00285DD150
:104AD0003848FDF745FAD0F1010138BF0021022026
:104AE000FDF70EFB002851D132482946FDF750FA58
:104AF00030486168FDF74CFA2E48A168FDF748FA86
:104B00002C48E168FDF744FA21692A48FDF740FA8C
:104B10002848FDF725FA011C18BF01210320FDF7E5
:104B2000EFFA002832D12348FDF71AFA011C18BF0A
:104B300001210320FDF7E4FA40BB1E48FDF710FAFF
:104B4000011C18BF01210320FDF7DAFAF0B919485A
:104B5000FDF706FA011C18BF01210320FDF7D0FA6A
:104B6000A0B91448FDF7FCF9011C18BF012103206E
:104B7000FDF7C6FA50B90F48FDF7F2F9D0F101017F
:104B800038BF00210420FDF7BBFA00B138BD102169
:104B9000094A0848FDF79CF90648FDF7E1F9D0F10C
:104BA000010138BF00210520BDE83840FDF7A8BA53
:104BB000A067000864080020214A0008AFF30080C5
:104BC00038B50546FCF77CF8002403461846AB428E
:104BD00008BF44F00104FCF783F803460028F5D130
:104BE000204638BDAFF30080AFF30080AFF3008004
:104BF00010B54A4B4A4C99694A488A684A4B82B078
:104C00004FF4A8710094013AFCF712F80446012011
:104C1000A37FB3EB000CDCF1000151EB0C01FDF7BD
:104C20006FFA08B102B010BD2046FBF7C9FFA27FA2
:104C30000220B2EB000EDEF1000353EB0E01FDF794
:104C40005FFA0028EED12046FBF7CAFFA17F0320C0
:104C50004A1E534253EB0201FDF752FA0028E1D1FC
:104C60002046FFF7ADFF01460420FDF749FA002872
:104C7000D8D12046FFF7A4FF01460520FDF740FAF2
:104C80000028CFD12046FBF7ABFFA17F0620D1F152
:104C9000010138BF0021FDF733FA0028C2D1227F7D
:104CA0000720D2F1010138BF0021FDF729FA0028C1
:104CB000B8D12046FFF784FF01460820FDF720FA0F
:104CC0000028AFD12046FFF77BFF01460920FDF702
:104CD00017FA0028A6D13220FBF7EAFE237F0A202C
:104CE000B3F10E0251425141FDF70AFA002899D161
:104CF0002046FFF765FF01460B20FDF701FA00286B
:104D000090D12046FFF75CFF80F00100C1B20C207B
:104D100002B0BDE81040FDF7F3B900BFF009002074
:104D2000546A000848110020314D0008AFF300809C
:104D300008B50078FDF7D4F9002008BDAFF3008076
:104D400041F2481040F63821C2F20000C2F20001E0
:104D50004FF4D262FCF7FCBFAFF30080AFF30080EA
:104D600041F2481040F63821C2F20000C2F20001C0
:104D70004FF4D262FCF7ECBFAFF30080AFF30080DA
:104D8000444B45489A6970B5444E95683168444C27
:104D9000FDF7FEF840487168FDF7FAF83E48B16843
:104DA000FDF7F6F83C48F168FDF7F2F8691E3D4A58
:104DB0003D4B3948FBF75CFFA91E2060394A3B4B4D
:104DC0003548FBF755FFE91E6060364A384B3248DC
:104DD000FBF74EFF291FA060324A364B2E48FBF7E7
:104DE00047FF691FE0602F4A2B48334BFBF740FF1A
:104DF0002168206149B1616839B1A16829B1E168D0
:104E000019B1D0F1010138BF00210120FDF778F977
:104E100000B170BDFDF70CFA02202849FDF788F9B2
:104E20000028F6D11C48FDF79BF8011C18BF012192
:104E30000320FDF765F90028EBD11748FDF790F83E
:104E4000011C18BF01210320FDF75AF90028E0D109
:104E50001148FDF785F8011C18BF01210320FDF75B
:104E60004FF90028D5D10C48FDF77AF8011C18BF7E
:104E700001210320FDF744F90028CAD10648FDF7B7
:104E80006FF8D0F1010138BF00210420BDE8704067
:104E9000FDF736B9F009002038110020A06700089E
:104EA000EC100020314D0008546A0008586A0008D0
:104EB0005C6A0008506A0008646A0008206F0008F5
:104EC00041F23810C2F200004FF4A8710022FCF742
:104ED000FFBF00BFAFF30080AFF30080AFF30080EF
:104EE00070B5334B33489969334C8D6884B003A94E
:104EF000FCF7CEFF314A324B00924FF4A8716A1E84
:104F00002C48FBF795FE20602E482D4B0090AA1EE2
:104F10004FF4A8712748FBF78BFE02A96060254873
:104F2000FCF7B6FF02992348FCF722FF2649244BE1
:104F3000009106464FF4A871EA1E1E48FBF778FE62
:104F4000A0603046FCF75CFF216829B1616819B1A7
:104F5000A168002923D000210120FDF7D1F808B174
:104F600004B070BDFDF764F902201849FDF7E0F8C0
:104F70000028F5D102A90F48FCF78AFF0138414209
:104F800041410320FDF7BCF80028E9D1039B029AB8
:104F90000420D31A59425941FDF7B2F8E0E7E3681B
:104FA000002BD9D12269D2F1010138BF0021D3E70A
:104FB000F009002048110020EC100020546A00087D
:104FC000314D0008586A00085C6A0008286F000824
:104FD000704700BFAFF30080AFF30080AFF30080F5
:104FE00040F6700008B50021C822C2F20000FCF7AC
:104FF000C7FD002008BD00BFAFF30080AFF3008005
:1050000000B546F2A07383B0C0F600030020196813
:10501000009044F6D17340F67000C2F20000042202
:10502000C0F60003FCF784FD03B000BDAFF30080C1
:1050300040F6940008B5C821C2F20000FCF710FD4C
:10504000002008BDAFF30080AFF30080AFF3008015
:1050500000B546F2A07383B0C0F6000300201968C3
:10506000009044F6D17340F69400C2F2000004228E
:10507000C0F60003FCF7A4FC03B000BDAFF3008052
:105080002DE9F041202382B083F31188AA4D6A698B
:10509000AB699A4200F0978000210120FDF730F8BB
:1050A0000646002868D1034683F31188A24C4121AB
:1050B00020464FF0FF32FCF763FD422120464FF0BF
:1050C000FF32FCF75DFD432120464FF0FF32FCF735
:1050D00057FD204644214FF0FF32FCF751FD2023BD
:1050E00083F31188AD680220D5F1010138BF00219A
:1050F000FDF706F80546002844D1034683F31188DE
:10510000202383F311882046FCF762FD2B4683F3AE
:105110001188C0B2FCF7E4FF202383F311882046F6
:10512000FCF756FD2B4683F31188C0B2FCF7D8FF7D
:10513000202383F311882046FCF74AFD2B4683F396
:105140001188C0B2FCF7CCFF202383F311882046DE
:10515000FCF73EFD2B4683F31188C0B2FCF7C0FF7D
:10516000202383F311886069A269904230D02946D8
:105170000320FCF7C5FF48B1002383F3118802B078
:10518000BDE8F081334683F31188F8E7034683F3E3
:10519000118804206949FCF7CBFF04460028EED1B2
:1051A000202383F31188644D2846FCF711FD03305A
:1051B00014BF002101210520FCF7A2FF68B123469E
:1051C00083F31188DBE7A968003118BF012164E788
:1051D000A368191C18BF0121CAE7034683F311888D
:1051E000574E7468082221462846FCF719FD071F10
:1051F000794279410620FCF783FF07460028BED19B
:10520000202383F31188AA680720D2F1010138BF57
:105210000021FCF775FF804618B13B4683F31188E7
:10522000ADE7034683F311883068464E464BB169BB
:10523000464E8A68CDF800804FF4A8710132FBF722
:10524000E7FB2023306083F311882869E968AB68A5
:10525000421AD61A0820B6F1040CDCF1000151EB19
:105260000C01FCF74DFF064618B1434683F3118845
:1052700085E7034683F31188FCF7DAFF202383F3E5
:1052800011882846FCF764FC334683F311882023F9
:1052900083F311882869EA68AB68811A0920B1EBA9
:1052A000030EDEF1000252EB0E01FCF729FF03466C
:1052B00000287FF467AF83F3118802222146284635
:1052C000FCF7AEFC0238434253EB00010A20FCF726
:1052D00017FF034600287FF452AF214602222846DA
:1052E000FCF79EFC821E514251410B20FCF708FF47
:1052F00000287FF444AF202383F31188AB680C208F
:10530000D3F1010138BF0021FCF7FAFE002383F33B
:10531000118800287FF433AF19460A220648FCF7AB
:105320002FFCB0F1FF30424252EB00010D2002B0E1
:10533000BDE8F041FCF7E4BE70080020206F0008D3
:10534000A0670008F0090020E14F0008EC100020E1
:105350002DE9F043202383B083F31188894CA168A1
:105360000120D1F1010138BF0021FCF7C9FE05463B
:1053700028BB034683F31188202383F3118841213E
:105380002046FCF745FB42212046FCF741FB432128
:105390002046FCF73DFB20464421FCF739FB2B4619
:1053A00083F31188202383F311886269A3699A42E9
:1053B00056D029460220FCF7A3FE054628B100235B
:1053C00083F3118803B0BDE8F083034683F31188AB
:1053D000202383F311886B4E01463046FCF718FBFF
:1053E000043014BF002101210320FCF789FE074689
:1053F00090BB034683F311884FF0FF313046FCF732
:105400002FFBC0B2FCF76CFE4FF0FF313046FCF7CB
:1054100027FBC0B2FCF764FE4FF0FF313046FCF7CB
:105420001FFBC0B2FCF75CFE4FF0FF313046FCF7CB
:1054300017FBC0B2FCF754FE202383F31188B16838
:105440000420D1F1010138BF0021FCF759FE60B101
:105450003B4683F31188B5E72B4683F31188B1E708
:10546000A068011C18BF0121A4E7034683F311883B
:1054700005204549FCF75CFE05460028A2D1202303
:1054800083F3118841213046FCF7C2FA42213046AD
:10549000FCF7BEFA43213046FCF7BAFA3046442105
:1054A000FCF7B6FA2B4683F31188384F7D68082243
:1054B00029463046FCF7FCFA021F534253EB020127
:1054C0000620FCF71DFE804600287FF47BAF2023DA
:1054D00083F31188B1680720D1F1010138BF0021A1
:1054E000FCF70EFE8146002847D1034683F311885E
:1054F000202383F3118841213046FCF789FA4221A9
:105500003046FCF785FA43213046FCF781FA3046F5
:105510004421FCF77DFA4B4683F311880222294689
:105520003046FCF7C5FA0238424252EB000108202F
:10553000FCF7E6FD00287FF445AF0222034629462A
:105540003046FCF7B5FAB0F1020CDCF1000353EB86
:105550000C010920FCF7D4FD804600287FF432AF0F
:10556000202383F31188B5680A20D5F1010138BFE3
:105570000021FCF7C5FD054650B1434683F3118871
:1055800020E700BF94080020206F0008A0670008F3
:10559000034683F31188202383F3118801463046A4
:1055A000FCF736FA3046FCF71BFA2B4683F31188DA
:1055B000202383F31188B1680B20D1F1010138BF9A
:1055C0000021FCF79DFD002383F3118800287FF460
:1055D000F9AE184A38689569AA6800931D464FF4D9
:1055E000A8710132144BFBF713FA14492023086009
:1055F00083F31188A3680C20B3EB050EDEF10002E3
:1056000052EB0E01FCF77CFD034600287FF424AF2B
:1056100083F31188FCF70CFE0A210948FCF720FAF5
:10562000B0F1FF30414241410D2003B0BDE8F043ED
:10563000FCF766BDF009002031500008EC10002096
:1056400094080020AFF30080AFF30080AFF3008038
:10565000704700BFAFF30080AFF30080AFF300806E
:10566000704700BFAFF30080AFF30080AFF300805E
:1056700047F2900010B5C0F6000047F2A004C0F653
:105680000004FCF705FD4FF4EA70FCF7B9FC204676
:10569000FCF70EFD47F2A800C0F60000FCF7F8FC8E
:1056A0004820FCF7ADFC2046FCF702FD47F2B800AD
:1056B000C0F60000FCF7ECFC1420FCF7A1FC20462F
:1056C000FCF7F6FC47F2C800C0F60000FCF7E0FC6F
:1056D0000C20FCF795FC2046FCF7EAFC47F2D800CA
:1056E000C0F60000FCF7D4FC0420FCF789FC20463F
:1056F000FCF7DEFC47F2E800C0F60000FCF7C8FC4F
:105700001020FCF77DFC2046FCF7D2FC47F2F800A5
:10571000C0F60000FCF7BCFC1020FCF771FC204632
:10572000FCF7C6FC47F20810C0F60000FCF7B0FC1E
:105730000820FCF765FC2046FCF7BAFC47F218107D
:10574000C0F60000FCF7A4FC2420FCF759FC20461E
:10575000FCF7AEFC47F22810C0F60000FCF798FCFE
:105760002820FCF74DFC2046BDE81040FCF7A0BC0B
:1057700038B5FCF7ADFD4FF47A70FCF7B9FD124D6A
:1057800000241248FBF794FCFBF7BAFC0F48FBF728
:105790008FFCFBF7B5FC0D48FBF78AFCFBF7B0FC70
:1057A0000A48FBF785FCFBF7ABFC2B780134002B98
:1057B000E7D00748FCF76CFCA000FCF721FC05488B
:1057C000BDE83840FCF774BCCD1000209C110020CF
:1057D0003871000848710008AFF30080AFF3008013
:1057E00041F29C10C2F20000FBF7F2BBAFF3008065
:1057F00010B5074C02E00748FBF7FAFAA369587F97
:1058000000F00401CAB2002AF5D0002010BD00BF8C
:10581000F0090020AC110020AFF30080AFF300804E
:1058200038B5FCF755FD4FF47A70FCF761FD144D67
:1058300000241448FBF7DCFA1248FBF719FB114867
:10584000FBF7D6FA0F48FBF713FB0E48FBF7D0FA2D
:105850000C48FBF70DFB0B48FBF7CAFA0948FBF7AE
:1058600007FB2B780134002BE3D00748FCF710FC32
:10587000A000FCF7C5FB0548BDE83840FCF718BCA4
:10588000CD100020AC1100203871000858710008BC
:1058900041F2AC10C2F200000121FBF739BA00BF9F
:1058A00041F2AC10C2F200000021FBF731BA00BF98
:1058B00038B5FCF70DFD4FF47A70FCF719FD154D66
:1058C0000024202383F31188012100231248134A66
:1058D000FAF7EEFE002342F21071104A1048FAF770
:1058E000E7FE0D48FAF704FF0D48FAF701FF002321
:1058F00083F311882B780134002BE2D00948FCF7A0
:10590000C7FB6000FCF77CFB0748BDE83840FCF7AC
:10591000CFBB00BFCD100020CC1100206156000885
:10592000B81100203871000868710008AFF30080DA
:1059300030B583B000242449244800941022234623
:10594000FCF73EF8FCF7C4FC4FF47A70FCF7D0FC8F
:105950001F4D202383F3118800211C48FCF758F8C1
:1059600001211A48FCF754F802211848FCF750F8B6
:1059700003211648FCF74CF8002383F311884FF0FD
:10598000FF311248FCF76CF84FF0FF310F48FCF77D
:1059900067F84FF0FF310D48FCF762F80B484FF005
:1059A000FF31FCF75DF82B780134002BD1D009488A
:1059B000FCF76EFBA000FCF723FB074803B0BDE833
:1059C0003040FCF775BB00BF681100207811002043
:1059D000CD1000203871000874710008AFF300800A
:1059E0002DE9F041144B154A9869D2F80080866879
:1059F000134F82B0FCF76CFC4FF47A70FCF778FC24
:105A00000024013625464FF4A871009540463246E1
:105A10000C4BFAF7FDFF397801340029F3D00A481E
:105A2000FCF736FB2046FCF7EBFA084802B0BDE86D
:105A3000F041FCF73DBB00BFF0090020A067000863
:105A4000CD10002051560008387100088071000800
:105A50002DE9F04340F6F01985B004ACC2F200091C
:105A6000002344F8043DFCF733FCD9F8181046F243
:105A7000A078C0F600088A68D8F80000009445F6BF
:105A80004136C0F60006013A33464FF4A871FAF7E2
:105A9000BFFFD9F81850D8F80470AB68009441F2F1
:105AA000EC05C2F200055A1E286033464FF4A87177
:105AB0003846FAF7ADFFD9F81810D8F808708A6898
:105AC0006860013A33464FF4A87100943846FAF7FB
:105AD0009FFFD9F81830D8F80C709A68A860013A7E
